:1000DC000000000000000000FF080808FF000E15DB
:1000EC00151508007E0102007E01020006090906B2
:1000FC00007D000000000000000000000000000077
:10009C00E4F509F50A12014EE4F508AF087E00E517
:1000AC000825099000DC93FD7C001200030508E58F
:1000BC0008C3940840E5050AE50AD3940A40D9E43C
:1000CC00F50A0509E509D3942840CDE4F50980C863
:10012E00EF4E600F7D027CC7DCFEDDFCEF1F70F032
:03013E001E80ED33
:01014100229B
:10010C00C2B5C2B6E4FEEFC4131313540124FF921C
:10011C00B4EF25E0FFD2B6C2B60EBE08E9D2B5C226
:01012C00B51D
:01012D0022AF
:100003008E0B8F0C8C0D8D0ED3E50C9408E50B94A1
:1000130000501FAF0E12010CAF0C7480A8070880AC
:1000230002C313D8FCF4F5807F017E0012012E7504
:0D00330080FFD3E50C9408E50B9400405BC2
:10004000AF0E12010CE50C54F0FFE4C4F854F0C8F4
:10005000EFC4540F48FFAD0CED540FC454F04FF5EE
:100060000F7E00E50C54CC7802CEC313CE13D8F922
:10007000FFED543325E025E04FF510E50C54AAFFC1
:10008000E4C313EF13FFE50C545525E04FF511F5CC
:0B009000807F017E0012012E7580FFB2
:01009B002242
:05014E00C2B6C2B5229B
:03000000020142B8
:0C014200787FE4F6D8FD75811102009C66
:00000001FF
