:10047100EF4E600F7D027CC7DCFEDDFCEF1F70F0EC
:030481001E80EDED
:010484002255
:06049900C2A58F80D2A76E
:08049F007F027EEFDEFEDFFCB0
:0104A7002232
:0A04B400C2A6120499C2A702049F19
:10040500CFCDCFCECCCE1202AF7C007D0A1202AF8B
:04041500ED2430FFA3
:0A041900D2A6120499C2A702049FA4
:10045B00AE07BE0104ED148006BE0209ED243F4435
:06046B0080FF1204B42220
:100485007F381204B47F0C1204B47F061204B47FC3
:04049500010204B4A8
:0A04BE00AC0312045BAF0402041942
:0603E2008B088A09890A5C
:1003E80012045BE4FDAB08AA09A90A8D8275830093
:0C03F800120270FF60061204190D80E96B
:0104040022D5
:0C03AF007F0AEA24FFFDE434FFFC7E001E
:0803BB008E0D8F0E8C0F8D10CA
:1003C3007F017E00E4FBEBC39510E50F6480F874B6
:0E03D3008098500AAC0DAD0E12029D0B80E812
:0103E10022F9
:040423008A0A8B0BAB
:1004270012045BAA0CEAD39400400D1203AFAC0A86
:08043700AD0B1204051A80ED63
:01043F00229A
:1003040012045BC3EA64809480400B7F2B120419AF
:100314008A168B17800E7F2D120419C3E49BF517E0
:10032400E49AF516AA15EAD39400400D1203AFAC73
:0903340016AD171204051A80ED44
:01033D00229D
:04033E008A1A8B1B71
:1003420012045BAA1CEAD3940040297F101203B165
:10035200AC1AAD1BCFCDCFCECCCE1202AFEF540F25
:10036200FEC3940AEE5004243080022437FF1204A4
:04037200191A80D103
:010376002264
:040377008A1F8B202E
:10037B0012045BAA21EAD394004028EA24FFFDE48F
:10038B0034FFFC7F027E001203BBAC1FAD20CFCD30
:10039B00CFCECCCE1202AFEF54012430FF12041992
:0303AB001A80D2E3
:0103AE00222C
:1004400050617373776F72643A004F4B2000202025
:0B045000202000455252002020200018
:10018C001204857BFF7A0479407D017F011203E222
:10019C001200038F26E52660F7D3940A5041C3E57D
:1001AC00239404E52294005028AE24AF257C007DD6
:1001BC000A12029D8E248F25E52675F00A84E5F03F
:1001CC002525F525E43524F5240523E523700205C2
:1001DC0022750C04AB25AA247D017F02120423E5B1
:1001EC0026640B7043E52564D27004E52464047B1B
:1001FC00FF70067A04794A80047A0479537D0E7F65
:10020C00011203E2E4F524F525F522F523750C041F
:10021C00AB25AA247D017F021204237BFF7A04798B
:10022C004E7D017F021203E2E526640C600302019D
:10023C009CF524F525F522F523750C04AB25AA2491
:10024C007D017F021204237BFF7A04794E7D017FAE
:10025C00021203E27BFF7A0479577D0E7F011203B1
:04026C00E202019C0D
:10000300E4F5087590FFC2932097137F14FE120442
:10001300713097FD7F147E001204717508012096DC
:10002300147F147E001204713096FD7F147E00123B
:1000330004717508052095147F147E001204713035
:1000430095FD7F147E001204717508092094147FB6
:10005300147E001204713094FD7F147E001204712B
:1000630075080D7590FFC2922097147F147E0012BD
:1000730004713097FD7F147E00120471750802200D
:1000830096147F147E001204713096FD7F147E0057
:100093001204717508062095147F147E00120471F2
:1000A3003095FD7F147E0012047175080A209414A4
:1000B3007F147E001204713094FD7F147E001204BD
:1000C3007175080E7590FFC2912097147F147E00FE
:1000D3001204713097FD7F147E00120471750803BA
:1000E3002096147F147E001204713096FD7F147ED7
:1000F300001204717508072095147F147E00120402
:10010300713095FD7F147E0012047175080B2094E5
:10011300147F147E001204713094FD7F147E00124C
:10012300047175080F7590FFC2902097147F147E99
:10013300001204713097FD7F147E0012047175085C
:10014300042096147F147E001204713096FD7F14F0
:100153007E001204717508082095147F147E001226
:1001630004713095FD7F147E0012047175080C2014
:1001730094147F147E001204713094FD7F147E006A
:08018300120471750810AF08A9
:01018B002251
:030000000204A84F
:0C04A800787FE4F6D8FD75812602018CF7
:10027000BB010CE58229F582E5833AF583E0225043
:1002800006E92582F8E622BBFE06E92582F8E2228D
:0D029000E58229F582E5833AF583E49322A7
:10029D00EF8DF0A4A8F0CF8CF0A428CE8DF0A42E75
:0202AD00FE222F
:1002AF00BC000BBE0029EF8DF084FFADF022E4CC33
:1002BF00F875F008EF2FFFEE33FEEC33FCEE9DECFC
:1002CF00984005FCEE9DFE0FD5F0E9E4CEFD22ED42
:1002DF00F8F5F0EE8420D21CFEADF075F008EF2F8C
:1002EF00FFED33FD4007985006D5F0F222C398FD7D
:0502FF000FD5F0EA221A
:00000001FF
