:10011200E4FD7F0112013212008F8F13E51360F7A5
:100122007F647E001200F0AD137F0112013280E77E
:10016700EF4E600F7D027CC7DCFEDDFCEF1F70F0F9
:030177001E80EDFA
:01017A002262
:10008F00E4F51620B1137F14FE12016730B1FD7F26
:10009F00147E0012016775160120B0147F147E00C4
:1000AF0012016730B0FD7F147E00120167751602D2
:1000BF0020B2147F147E0012016730B2FD7F147ED0
:1000CF000012016775160320B3147F147E0012010E
:1000DF006730B3FD7F147E00120167751604AF16EB
:0100EF0022EE
:0D017B000B083F065B4F666D7D077F6F0030
:10013200C374089FFF1392A2EFC3131392A3EF138A
:0E01420013543F1392A474082DF8E6F58022A2
:100150005389F0438901C28DD28C758A66758CFCF7
:07016000D2A9D2AFC2B922FF
:05018900007FE3DFFE32
:01018E00224E
:0400F000AD07AC06A6
:1000F400E4FBFAED25E0FFEC33FEC3EB9FEA9E50F0
:0D0104000CB2A51201890BBB00010A80E6B8
:0101110022CB
:03000000020003F8
:0C000300787FE4F6D8FD75811602004AF3
:10000F00020112E493A3F8E493A34003F68001F2F4
:10001F0008DFF48029E493A3F85407240CC8C333F2
:10002F00C4540F4420C8834004F456800146F6DFC1
:10003F00E4800B010204081020408090017BE47ED5
:10004F00019360BCA3FF543F30E509541FFEE493B6
:10005F00A360010ECF54C025E060A840B8E493A37D
:10006F00FAE493A3F8E493A3C8C582C8CAC583CAA8
:10007F00F0A3C8C582C8CAC583CADFE9DEE780BE60
:010188000076
:00000001FF
