:1000F600C2B5C2B6E4FEEFC4131313540124FF9233
:10010600B4EF25E0FFD2B6C2B60EBE08E9D2B5C23C
:01011600B533
:0101170022C5
:060003007D3C7C007E0044
:100009008E088F098C0A8D0BD3E5099408E50894AD
:10001900005021AF0B1200F6E50914FF7480A80700
:10002900088002C313D8FCF4F5807F017E00120119
:0F003900187580FFD3E5099408E5089400405B33
:10004800AF0B1200F6E50954F0FFE4C4F854F0C809
:10005800EFC4540F48FFAD09ED540FC454F04FF5E9
:100068000C7E00E50954CC7802CEC313CE13D8F920
:10007800FFED543325E025E04FF50DE50954AAFFBF
:10008800E4C313EF13FFE509545525E04FF50EF5CA
:0B009800807F017E001201187580FFC0
:0100A300223A
:1000A400C2B6C2B57F011200037D427C007F027E8E
:1000B400001200097DA97C007F037E001200097DE7
:1000C400857C007F047E001200097D857C007F050D
:1000D4007E001200097DA97C007F067E00120009C3
:1000E4007D427C007F077E001200097F0812000316
:0200F40080B2D8
:10011800EF4E600F7D027CC7DCFEDDFCEF1F70F048
:030128001E80ED49
:01012B0022B1
:0300000002012CCE
:0C012C00787FE4F6D8FD75810E0200A477
:00000001FF
