:06073200012A00012B006A
:1006CA00EF75F00A84FEEF75F00A8485F052AF06E2
:1006DA00EFFD7C007F01120915E552FD7C007F02C7
:0306EA00020915ED
:1003670012083112091E8F2CE52CB40103752904DC
:10037700E52CB40203752905E52914601A14602CCD
:1003870014603314604A146055240570D6D292C2A3
:1003970090D294C2958032D290E52A24FF9291E5BB
:1003A7002A60077F647E00120710801DD291C292D7
:1003B700D295C2938013D293E52A24FF9294E52A1B
:1003C70060077F647E00120710AF281206CA809369
:1003D700D290D291C292D293D294C2958085D29074
:1003E700D292E52A24FF9291D293D2959294020356
:0103F7006A9B
:03000B000201D817
:1001D800C0E0C0F0C083C082C0D075D000C000C0ED
:0D01E80001C002C003C004C005C006C0076E
:1001F500758A66758CFC051FE51F7002051E0521B5
:10020500E521700205200523E52370020522052559
:10021500E52570020524C39402E524940040097580
:1002250024007525001207E4C3E5259402E524940E
:1002350000402B7524007525007FAC1204EA8E263C
:100245008F27C3E52794BEE526940050037529053D
:10025500D3E52794A0E52694004003752900C3E55E
:100265001F9414E51E94004009751E00751F0012A9
:10027500089EC3E52394F4E5229401400975220004
:10028500752300632AFFE5297014C3E5219488E5E9
:100295002094134009752000752100752901E52971
:1002A500B40114C3E52194D0E520940740097520D5
:1002B50000752100752902E529B40214C3E52194CE
:1002C50088E52094134009752000752100752903E0
:1002D500E529B40314C3E52194D0E520940740092A
:1002E500752000752100752900E529B40414C3E5BE
:1002F500219410E52094274009752000752100758B
:100305002900AE20AF217C037DE8120175ED640163
:100315004C7034E5296003B40211AE20AF217C0393
:100325007DE8120175C374059FF528E52964016010
:1003350005E529B40311AE20AF217C037DE8120148
:0703450075C374029FF52847
:10034C00D007D006D005D004D003D002D001D00005
:0B035C00D0D0D082D083D0F0D0E032AF
:10088A00EF4E600F7D027CC7DCFEDDFCEF1F70F0CF
:03089A001E80EDD0
:01089D002238
:05091E00E4AF49F549BA
:0109230022B1
:10084800E4FF20B1010F20B0027F0220B2027F0333
:0508580020B3027F0443
:01085D002278
:10089E008547481208488F47E5486007E5477003CB
:0308AE0085484931
:0108B1002224
:0608C600C2A58F80D2A73D
:0808CC007F027EEFDEFEDFFC7F
:0108D4002201
:0A08EE00C2A61208C6C2A70208CC79
:10075200CFCDCFCECCCE1201757C007D0A120175B1
:04076200ED2430FF53
:0A076600D2A61208C6C2A70208CCF2
:10085E00AE07BE0104ED148006BE0209ED243F442E
:06086E0080FF1208EE22DB
:1008B2007F381208EE7F0C1208EE7F061208EE7FD8
:0408C200010208EE39
:0A08F800AC0312085EAF04020766AD
:0606ED008B4A8A4B894C88
:1006F30012085EE4FDAB4AAA4BA94C8D82758300B8
:0C070300120136FF60061207660D80E947
:01070F0022C7
:0C05EE007F0AEA24FFFDE434FFFC7E00DD
:0805FA008E438F448C458D46B1
:100602007F017E00E4FBEBC39546E5456480F87408
:0E0612008098500AAC43AD441201630B80E89F
:0106200022B7
:04078E008A368B37E5
:1007920012085EAA38EAD39400400D1205EEAC3678
:0807A200AD371207521A80ED79
:0107AA00222C
:1005430012085EC3EA64809480400B7F2B12076617
:100553008A328B33800E7F2D120766C3E49BF533FB
:10056300E49AF532AA31EAD39400400D1205EEACB9
:0905730032AD331207521A80ED7B
:01057C00225C
:04057D008A3B8B3CEE
:1005810012085EAA3DEAD3940040297F101205F0BB
:10059100AC3BAD3CCFCDCFCECCCE120175EF540FDD
:1005A100FEC3940AEE5004243080022437FF120760
:0405B100661A80D175
:0105B5002223
:0405B6008A408B41AB
:1005BA0012085EAA42EAD394004028EA24FFFDE426
:1005CA0034FFFC7F027E001205FAAC40AD41CFCD6C
:1005DA00CFCECCCE120175EF54012430FF1207663C
:0305EA001A80D2A2
:0105ED0022EB
:1006A6008F4D8C4E8D4F12090C7FA012067D1208BD
:1006B600E2AF4D12067D1208E2AF4F12067D120818
:0406C600E202000349
:020621008F53F5
:1006230012090C7FA012067D1208E2AF5312067D59
:100633001208E212090C7FA112067D1208E21207CA
:0D064300AB8F547F01120902120003AF5467
:010650002287
:09090C00D2A0D2A1C2A0C2A12216
:07000300C2A0D2A1D2A0228D
:02067D00AD07C7
:10067F00E4FB74807E00A803088006CEA2E713CEA9
:10068F0013D8F8FFEDF582EF558224FF92A0D2A187
:06069F00C2A10BBB08DC48
:0106A5002232
:1007AB00D2A0E4FED2A130A00D7480A8060880026E
:0C07BB00C313D8FC4207C2A10EBE08E820
:0107C700220F
:0A090200EF24FF92A0D2A1C2A122AF
:0B08E200D2A0D2A1A2A0E433FFC2A16B
:0108ED0022E8
:100831005389F0438901C28DD28C758A66758CFC0F
:07084100D2A9D2AFC2B92217
:100738000909000A0A0A0A0A0A0A0A0C123F065B91
:090748004F666D7D077F6F0040D4
:09091500AE0574092FF8A60622B4
:10048400E4F580EF14B40800505490049C75F00314
:10049400A4C58325F0C583730204B40204B802041E
:1004A400BC0204C00204C40204CC0204D40204DC6E
:1004B400D2A4800ED2A48012D2A48016D2A4801A10
:1004C400C2A4D2A3D2A28016C2A4D2A3C2A2800E76
:1004D400C2A4C2A3D2A28006C2A4C2A3C2A274129E
:0604E4002DF8E6F5802270
:1007E40074092508F8E6FD7C00AF081204840508A6
:0A07F400E508C394094003750801ED
:0107FE0022D8
:0D08D5001207707FCC1207FF7F440207FF5F
:100651001207707FCC1207FF7FBE1207FF12081826
:100661008F55120818EFFEE555FFFDAC06EC1200A0
:0B067100B3E4FBFA798078411200111D
:01067C00225B
:10077000C2AFD2B7C2B77FE3DFFED2B77F1DDFFEC5
:0D078000A2B7E433FE7FE3DFFED2AFAF0689
:01078D002249
:10087400C2AFC2B77E04DEFEEF24FF92B77E17DE5E
:05088400FED2AFD2B767
:01088900224C
:1007C800C2AFC2B77F02DFFED2B77F02DFFEA2B799
:0B07D800E433FE7F17DFFED2AFAF0658
:0107E30022F3
:0207FF00AD0744
:10080100E4FC7401A804088002C333D8FC5DFF1224
:0608110008740CBC08ECA9
:0108170022BE
:10081800E4FDFC1207C8EFA804088002C333D8FC23
:0808280042050CBC08EDAF0510
:0108300022A5
:05092400007FE3DFFE8F
:0109290022AB
:04071000AD07AC067F
:10071400E4FBFAED25E0FFEC33FEC3EB9FEA9E50C9
:0D0724000CB2A51209240BBB00010A80E6EF
:0107310022A5
:0204EA00AD075C
:1004EC00E4F550F551C2B6C2B5FB74807E00A8038A
:1004FC00088006CEA2E713CE13D8F8FFEDF582EFF5
:10050C00558224FF92B4D2B6C2B60BBB08DCE4FB16
:10051C00D2B6C2B630B714E47E80A803088005CEEC
:10052C00C313CE13D8F94251EE42500BBB10E1D29B
:06053C00B5E550FF7E0052
:010542002296
:10000E0002012BEC5D046005E85904700302012126
:10001E001200EC580460F6EC4860F2EC7004FDFE41
:10002E00FF22C860DB2481C85009C39860025006C5
:10003E000201289850CAF582E9294B4A7005AB8215
:10004E0002011775F0007C1A7880C3EF9BEE9AEDD3
:10005E0099400DC3EF9BFFEE9AFEED99FDE842F03D
:10006E00DC23ACF0D0E0FFD0E0FED0E0FDAB822090
:10007E00E7101BEB60BAEC2CFCEF33FFEE33FEED1A
:10008E0033FD020103E803F830E705C0F075F00018
:10009E00EF2FFFEE33FEED33FD40B830E7C280AAFE
:1000AE0075F020800E75F010800575F0087D007ECD
:1000BE00007F003392D530D5031201CAEC334010C5
:1000CE00EF33FFEE33FEED33FDEC33FCD5F0ED22D6
:0E00DE00E5F0247EA2D513CC92E7CDCEFF2212
:1000EC00E9D2E7C933E833F892D5EDD2E7CD33EC5A
:0700FC0033FC5002B2D522D3
:10010300EC30E7100FBF000C0EBE00080DBD00045D
:100113000BEB6014A2D5EB13FCED92E7FD2274FF09
:10012300FCFDFEFF22E480F8A2D574FF13FC7D8062
:03013300E480EF76
:030000000203F800
:0C03F800787FE4F6D8FD75815502043FC3
:10013600BB010CE58229F582E5833AF583E022507E
:1001460006E92582F8E622BBFE06E92582F8E222C8
:0D015600E58229F582E5833AF583E49322E2
:10016300EF8DF0A4A8F0CF8CF0A428CE8DF0A42EB0
:02017300FE226A
:10017500BC000BBE0029EF8DF084FFADF022E4CC6E
:10018500F875F008EF2FFFEE33FEEC33FCEE9DEC37
:10019500984005FCEE9DFE0FD5F0E9E4CEFD22ED7D
:1001A500F8F5F0EE8420D21CFEADF075F008EF2FC7
:1001B500FFED33FD4007985006D5F0F222C398FDB8
:0501C5000FD5F0EA2255
:0E01CA00C3E49FFFE49EFEE49DFDE49CFC2246
:10040400020367E493A3F8E493A34003F68001F2A4
:1004140008DFF48029E493A3F85407240CC8C333F9
:10042400C4540F4420C8834004F456800146F6DFC8
:10043400E4800B0102040810204080900732E47E1F
:10044400019360BCA3FF543F30E509541FFEE493BD
:10045400A360010ECF54C025E060A840B8E493A384
:10046400FAE493A3F8E493A3C8C582C8CAC583CAAF
:10047400F0A3C8C582C8CAC583CADFE9DEE780BE67
:0107510000A7
:00000001FF
