:08073F00012F00013000C10090
:1006F900EF75F00A84FEEF75F00A8485F057AF06AE
:10070900EFFD7C007F07120946E557FD7C007F0855
:030719000209468C
:1003880012086212094F8F31E531B40103752E044A
:10039800E531B40203752E05E52E14601A146021A8
:1003A800146028146034146051240570D6D2A5C294
:1003B800A0D294C2A7801CD2A0E52F24FF92A180CE
:1003C80012D2A1C2A5D2A7C2A68008D2A6E52F2420
:1003D800FF9294AF2D1206F980A9D2A0D2A1C2A58E
:1003E800D2A6D294C2A77D0A7C007F071209467D57
:1003F8000A7C007F081209468089D2A0D2A5E52F81
:1004080024FF92A1D2A6D2A792947D0A7C007F07EE
:0F0418001209467D0A7C007F0812094602038BF9
:03000B000201D817
:1001D800C0E0C0F0C083C082C0D075D000C000C0ED
:0D01E80001C002C003C004C005C006C0076E
:1001F500758A66758CFC0522E522700205210524A9
:10020500E524700205230526E52670020525052847
:10021500E52870020527052AE52A70020529C3E5A8
:10022500289402E5279400400975270075280012D7
:100235000815C3E52A9464E5299400403F75290013
:10024500752A007FAC1205198E2B8F2CC3E52C94D3
:1002550032E52B94005004D2008002C20030000B1E
:10026500E52E64056005752E05800B20000EE52E34
:10027500B40509752E00752300752400C3E5229485
:1002850014E521940040097521007522001208CF5C
:10029500C3E52694F4E525940140097525007526E6
:1002A50000632FFF200063E52E7014C3E5249488B6
:1002B500E52394134009752300752400752E01E587
:1002C5002EB40114C3E52494D0E5239407400975A1
:1002D5002300752400752E02E52EB40214C3E5240F
:1002E5009488E52394134009752300752400752E21
:1002F50003E52EB40314C3E52494D0E52394074005
:1003050009752300752400752E00E52EB40414C369
:10031500E5249410E52394274009752300752400EE
:10032500752E00AE23AF247C037DE8120175ED64C4
:10033500014C7034E52E6003B40211AE23AF247C6A
:10034500037DE8120175C374059FF52DE52E640143
:100355006005E52EB40311AE23AF247C037DE812BE
:080365000175C374029FF52D20
:10036D00D007D006D005D004D003D002D001D000E4
:0B037D00D0D0D082D083D0F0D0E0328E
:1008BB00EF4E600F7D027CC7DCFEDDFCEF1F70F09E
:0308CB001E80ED9F
:0108CE002207
:05094F00E4AF4EF54E7F
:010954002280
:10087900E4FF20B1010F20B0027F0220B2027F0302
:0508890020B3027F0412
:01088E002247
:1008CF00854C4D1208798F4CE54D6007E54C700350
:0308DF00854D4EF6
:0108E20022F3
:0608F700C2A58F80D2A70C
:0808FD007F027EEFDEFEDFFC4E
:0109050022CF
:0A091F00C2A61208F7C2A70208FDE5
:10078300CFCDCFCECCCE1201757C007D0A12017580
:04079300ED2430FF22
:0A079700D2A61208F7C2A70208FD5F
:10088F00AE07BE0104ED148006BE0209ED243F44FD
:06089F0080FF12091F2278
:1008E3007F3812091F7F0C12091F7F0612091F7F11
:0408F3000102091FD6
:0A092900AC0312088FAF0402079719
:06071C008B4F8A50895149
:1007220012088FE4FDAB4FAA50A9518D8275830048
:0C073200120136FF60061207970D80E9E7
:01073E002298
:0C061D007F0AEA24FFFDE434FFFC7E00AD
:080629008E488F498C4A8D4B6D
:100631007F017E00E4FBEBC3954BE54A6480F874CF
:0E0641008098500AAC48AD491201630B80E866
:01064F002288
:0407BF008A3B8B3CAA
:1007C30012088FAA3DEAD39400400D12061DAC3BDC
:0807D300AD3C1207831A80ED12
:0107DB0022FB
:1005720012088FC3EA64809480400B7F2B12079786
:100582008A378B38800E7F2D120797C3E49BF5388C
:10059200E49AF537AA36EAD39400400D12061DAC50
:0905A20037AD381207831A80ED11
:0105AB00222D
:0405AC008A408B41B5
:1005B00012088FAA42EAD3940040297F1012061F26
:1005C000AC40AD41CFCDCFCECCCE120175EF540FA4
:1005D000FEC3940AEE5004243080022437FF120731
:0405E000971A80D115
:0105E40022F4
:0405E5008A458B4672
:1005E90012088FAA47EAD394004028EA24FFFDE4C1
:1005F90034FFFC7F027E00120629AC45AD46CFCD03
:10060900CFCECCCE120175EF54012430FF120797DB
:030619001A80D272
:01061C0022BB
:1006D5008F528C538D5412093D7FA01206AC12091E
:1006E50013AF521206AC120913AF541206AC12091D
:0406F50013020003E9
:020650008F1EFB
:1006520012093D7FA01206AC120913AF1E1206AC9E
:1006620012091312093D7FA11206AC1209131207D7
:0D067200DC8F1F7F01120933120003AF1F40
:01067F002258
:09093D00D2A0D2A1C2A0C2A122E5
:07000300C2A0D2A1D2A0228D
:0206AC00AD0798
:1006AE00E4FB74807E00A803088006CEA2E713CE7A
:1006BE0013D8F8FFEDF582EF558224FF92A0D2A158
:0606CE00C2A10BBB08DC19
:0106D4002203
:1007DC00D2A0E4FED2A130A00D7480A8060880023D
:0C07EC00C313D8FC4207C2A10EBE08E8EF
:0107F80022DE
:0A093300EF24FF92A0D2A1C2A1227E
:0B091300D2A0D2A1A2A0E433FFC2A139
:01091E0022B6
:100862005389F0438901C28DD28C758A66758CFCDE
:07087200D2A9D2AFC2B922E6
:100747000909000A0A0A0A0A0A0A0A0C123F065B82
:090757004F666D7D077F6F0040C5
:09094600AE0574092FF8A6062283
:1004B300E4F580EF14B4080050549004CB75F003B6
:1004C300A4C58325F0C583730204E30204E7020491
:1004D300EB0204EF0204F30204FB02050302050B23
:1004E300D2A4800ED2A48012D2A48016D2A4801AE1
:1004F300C2A4D2A3D2A28016C2A4D2A3C2A2800E47
:10050300C2A4C2A3D2A28006C2A4C2A3C2A274126E
:060513002DF8E6F5802240
:1008150074092508F8E6FD7C00AF081204B3050845
:0A082500E508C394094003750801BB
:01082F0022A6
:0D0906001207A17FCC1208307F4402083098
:100680001207A17FCC1208307FBE12083012084931
:100690008F58120849EFFEE558FFFDAC06EC12003A
:0B06A000B3E4FBFA79807841120011EE
:0106AB00222C
:1007A100C2AFD2B7C2B77FE3DFFED2B77F1DDFFE94
:0D07B100A2B7E433FE7FE3DFFED2AFAF0658
:0107BE002218
:1008A500C2AFC2B77E04DEFEEF24FF92B77E17DE2D
:0508B500FED2AFD2B736
:0108BA00221B
:1007F900C2AFC2B77F02DFFED2B77F02DFFEA2B768
:0B080900E433FE7F17DFFED2AFAF0626
:0108140022C1
:02083000AD0712
:10083200E4FC7401A804088002C333D8FC5DFF12F3
:0608420008A50CBC08EC47
:01084800228D
:10084900E4FDFC1207F9EFA804088002C333D8FCC1
:0808590042050CBC08EDAF05DF
:010861002274
:05095500007FE3DFFE5E
:01095A00227A
:04076100AD07AC062E
:10076500E4FBFAED25E0FFEC33FEC3EB9FEA9E5078
:0D0775000CB2A51209550BBB00010A80E66D
:010782002254
:02051900AD072C
:10051B00E4F555F556C2B6C2B5FB74807E00A80350
:10052B00088006CEA2E713CE13D8F8FFEDF582EFC5
:10053B00558224FF92B4D2B6C2B60BBB08DCE4FBE7
:10054B00D2B6C2B630B714E47E80A803088005CEBD
:10055B00C313CE13D8F94256EE42550BBB10E1D262
:06056B00B5E555FF7E001E
:010571002267
:10000E0002012BEC5D046005E85904700302012126
:10001E001200EC580460F6EC4860F2EC7004FDFE41
:10002E00FF22C860DB2481C85009C39860025006C5
:10003E000201289850CAF582E9294B4A7005AB8215
:10004E0002011775F0007C1A7880C3EF9BEE9AEDD3
:10005E0099400DC3EF9BFFEE9AFEED99FDE842F03D
:10006E00DC23ACF0D0E0FFD0E0FED0E0FDAB822090
:10007E00E7101BEB60BAEC2CFCEF33FFEE33FEED1A
:10008E0033FD020103E803F830E705C0F075F00018
:10009E00EF2FFFEE33FEED33FD40B830E7C280AAFE
:1000AE0075F020800E75F010800575F0087D007ECD
:1000BE00007F003392D530D5031201CAEC334010C5
:1000CE00EF33FFEE33FEED33FDEC33FCD5F0ED22D6
:0E00DE00E5F0247EA2D513CC92E7CDCEFF2212
:1000EC00E9D2E7C933E833F892D5EDD2E7CD33EC5A
:0700FC0033FC5002B2D522D3
:10010300EC30E7100FBF000C0EBE00080DBD00045D
:100113000BEB6014A2D5EB13FCED92E7FD2274FF09
:10012300FCFDFEFF22E480F8A2D574FF13FC7D8062
:03013300E480EF76
:03000000020427D0
:0C042700787FE4F6D8FD75815802046E61
:10013600BB010CE58229F582E5833AF583E022507E
:1001460006E92582F8E622BBFE06E92582F8E222C8
:0D015600E58229F582E5833AF583E49322E2
:10016300EF8DF0A4A8F0CF8CF0A428CE8DF0A42EB0
:02017300FE226A
:10017500BC000BBE0029EF8DF084FFADF022E4CC6E
:10018500F875F008EF2FFFEE33FEEC33FCEE9DEC37
:10019500984005FCEE9DFE0FD5F0E9E4CEFD22ED7D
:1001A500F8F5F0EE8420D21CFEADF075F008EF2FC7
:1001B500FFED33FD4007985006D5F0F222C398FDB8
:0501C5000FD5F0EA2255
:0E01CA00C3E49FFFE49EFEE49DFDE49CFC2246
:10043300020388E493A3F8E493A34003F68001F254
:1004430008DFF48029E493A3F85407240CC8C333CA
:10045300C4540F4420C8834004F456800146F6DF99
:10046300E4800B010204081020408090073FE47EE3
:10047300019360BCA3FF543F30E509541FFEE4938E
:10048300A360010ECF54C025E060A840B8E493A355
:10049300FAE493A3F8E493A3C8C582C8CAC583CA80
:1004A300F0A3C8C582C8CAC583CADFE9DEE780BE38
:010760000098
:00000001FF
