:08079F00012E00013100C10030
:10058900E52F75F00A84FFE52F75F00A8485F04B95
:10059900E53075F00A84F54CE53075F00A8485F08C
:1005A9004DEFFD7C007F071209A6E54BFD7C007F1E
:1005B900081209A6E54CFD7C007F011209A6E54D4C
:0805C900FD7C007F020209A67F
:100734007D0A7C007F011209A67D0A7C007F0212DB
:1007440009A67D0A7C007F071209A67D0A7C007F2A
:04075400080209A6E8
:1003A9001208C21209AF8F32E532B40103752D0468
:1003B900E532B40203752D05E52D14601A14602C7D
:1003C900146033146048146056240570D6D292C262
:1003D90090D294C2968032D290E52E24FF9291E574
:1003E9002E60077F647E001207C1801DD291C292E0
:1003F900D296C2938013D293E52E24FF9294E52ED0
:1004090060077F647E001207C11205898095D2902A
:10041900D291C292D293D294C2961207348084D2D6
:1004290090D292E52E24FF9291D293D29692941271
:0504390007340203ACD2
:03000B0002000EE2
:10000E00C0E0C0F0C083C082C0D075D000C000C0B8
:0D001E0001C002C003C004C005C006C00739
:10002B00758A66758CFC0522E52270020521052474
:10003B00E524700205230526E52670020525052813
:10004B00E52870020527052AE52A70020529C3E574
:10005B00289402E5279400400975270075280012A3
:10006B000875C3E52A9464E5299400403F7529007F
:10007B00752A007FAC1205308E2B8F2CC3E52C9488
:10008B00BEE52B94005004D2008002C20030000B5E
:10009B00E52D64056005752D05800B20000EE52D03
:1000AB00B40509752D00752300752400C3E5229452
:1000BB0014E5219400400975210075220012092FC7
:1000CB00C3E52694F4E525940140097525007526B2
:1000DB0000632EFF200063E52D7014C3E5249458B4
:1000EB00E523941B4009752300752400752D01E54C
:1000FB002DB40114C3E52494B8E523940B40097582
:10010B002300752400752D02E52DB40214C3E524DC
:10011B009458E523941B4009752300752400752D15
:10012B0003E52DB40314C3E52494B8E523940B40E5
:10013B0009752300752400752D00E52DB40414C337
:10014B00E5249410E52394274009752300752400BA
:10015B00752D00AE23AF247C037DE8120346ED64BE
:10016B00014C7055E52D7017AE23AF247C037DE851
:10017B00120346C374079FF52FC3740A9FF530E52E
:10018B002DB40217AE23AF247C037DE8120346C3C4
:10019B00740A9FF52FC374079FF530E52D6401603A
:1001AB0005E52DB40313AE23AF247C037DE81203C6
:0901BB0046C374039FF52FF530D3
:1001C400D007D006D005D004D003D002D001D0008F
:0B01D400D0D0D082D083D0F0D0E03239
:10091B00EF4E600F7D027CC7DCFEDDFCEF1F70F03D
:03092B001E80ED3E
:01092E0022A6
:0509AF00E4AF54F55413
:0109B4002220
:1008D900E4FF20B1010F20B0027F0220B2027F03A2
:0508E90020B3027F04B2
:0108EE0022E7
:10092F008552531208D98F52E5536007E552700371
:03093F0085535489
:010942002292
:06095700C2A58F80D2A7AB
:08095D007F027EEFDEFEDFFCED
:01096500226F
:0A097F00C2A6120957C2A702095DC3
:1007E300CFCDCFCECCCE1203467C007D0A1203467A
:0407F300ED2430FFC2
:0A07F700D2A6120957C2A702095D3D
:1008EF00AE07BE0104ED148006BE0209ED243F449D
:0608FF0080FF12097F22B8
:100943007F3812097F7F0C12097F7F0612097F7F90
:040953000102097F15
:0A098900AC031208EFAF040207F7F9
:06077C008B558A568957D7
:100782001208EFE4FDAB55AA56A9578D8275830076
:0C079200120307FF60061207F70D80E954
:01079E002238
:0C067C007F0AEA24FFFDE434FFFC7E004E
:080688008E4E8F4F8C508D51F6
:100690007F017E00E4FBEBC39551E5506480F87464
:0E06A0008098500AAC4EAD4F1203340B80E828
:0106AE002229
:04081F008A3C8B3D47
:100823001208EFAA3EEAD39400400D12067CAC3CBA
:08083300AD3D1207E31A80ED50
:01083B00229A
:1005D1001208EFC3EA64809480400B7F2B1207F767
:1005E1008A388B39800E7F2D1207F7C3E49BF539CA
:1005F100E49AF538AA37EAD39400400D12067CAC90
:0906010038AD391207E31A80ED4F
:01060A0022CD
:04060B008A418B4253
:10060F001208EFAA43EAD3940040297F1012067E06
:10061F00AC41AD42CFCDCFCECCCE120346EF540F6F
:10062F00FEC3940AEE5004243080022437FF1207D1
:04063F00F71A80D155
:010643002294
:040644008A468B4710
:100648001208EFAA48EAD394004028EA24FFFDE400
:1006580034FFFC7F027E00120688AC46AD47CFCD42
:10066800CFCECCCE120346EF54012430FF1207F749
:030678001A80D213
:01067B00225C
:100758008F588C598D5A12099D7FA012070B1209C8
:1007680073AF5812070B120973AF5A12070B12090D
:040778007302000305
:0206AF008F1E9C
:1006B10012099D7FA012070B120973AF1E12070BBF
:1006C10012097312099D7FA112070B1209731208F7
:0D06D1003C8F1F7F01120993120003AF1F21
:0106DE0022F9
:09099D00D2A0D2A1C2A0C2A12285
:07000300C2A0D2A1D2A0228D
:02070B00AD0738
:10070D00E4FB74807E00A803088006CEA2E713CE1A
:10071D0013D8F8FFEDF582EF558224FF92A0D2A1F8
:06072D00C2A10BBB08DCB9
:0107330022A3
:10083C00D2A0E4FED2A130A00D7480A806088002DC
:0C084C00C313D8FC4207C2A10EBE08E88E
:01085800227D
:0A099300EF24FF92A0D2A1C2A1221E
:0B097300D2A0D2A1A2A0E433FFC2A1D9
:01097E002256
:1008C2005389F0438901C28DD28C758A66758CFC7E
:0708D200D2A9D2AFC2B92286
:1007A7000909000A0A0A0A0A0A0A0A0C123F065B22
:0907B7004F666D7D077F6F004065
:0909A600AE0574092FF8A6062223
:1004CA00E4F580EF14B4080050549004E275F00388
:1004DA00A4C58325F0C583730204FA0204FE02054B
:1004EA000202050602050A02051202051A0205227F
:1004FA00D2A4800ED2A48012D2A48016D2A4801ACA
:10050A00C2A4D2A3D2A28016C2A4D2A3C2A2800E2F
:10051A00C2A4C2A3D2A28006C2A4C2A3C2A2741257
:06052A002DF8E6F5802229
:1008750074092508F8E6FD7C00AF081204CA0508CE
:0A088500E508C3940940037508015B
:01088F002246
:0D0966001208017FCC1208907F4402089017
:1006DF001208017FCC1208907FBE1208901208A951
:1006EF008F5B1208A9EFFEE55BFFFDAC06EC120273
:0B06FF0084E4FBFA798078411201E2EC
:01070A0022CC
:10080100C2AFD2B7C2B77FE3DFFED2B77F1DDFFE33
:0D081100A2B7E433FE7FE3DFFED2AFAF06F7
:01081E0022B7
:10090500C2AFC2B77E04DEFEEF24FF92B77E17DECC
:05091500FED2AFD2B7D5
:01091A0022BA
:10085900C2AFC2B77F02DFFED2B77F02DFFEA2B707
:0B086900E433FE7F17DFFED2AFAF06C6
:010874002261
:02089000AD07B2
:10089200E4FC7401A804088002C333D8FC5DFF1293
:0608A20009050CBC08EC86
:0108A800222D
:1008A900E4FDFC120859EFA804088002C333D8FC00
:0808B90042050CBC08EDAF057F
:0108C1002214
:0509B500007FE3DFFEFE
:0109BA00221A
:0407C100AD07AC06CE
:1007C500E4FBFAED25E0FFEC33FEC3EB9FEA9E5018
:0D07D5000CB2A51209B50BBB00010A80E6AD
:0107E20022F4
:02053000AD0715
:10053200E4F549F54AC2B6C2B5FB74807E00A80351
:10054200088006CEA2E713CE13D8F8FFEDF582EFAE
:10055200558224FF92B4D2B6C2B60BBB08DCE4FBD0
:10056200D2B6C2B630B714E47E80A803088005CEA6
:10057200C313CE13D8F9424AEE42490BBB10E1D263
:06058200B5E549FF7E0013
:010588002250
:1001DF000202FCEC5D046005E8590470030202F2B0
:1001EF001202BD580460F6EC4860F2EC7004FDFE9C
:1001FF00FF22C860DB2481C85009C39860025006F3
:10020F000202F99850CAF582E9294B4A7005AB8270
:10021F000202E875F0007C1A7880C3EF9BEE9AED2E
:10022F0099400DC3EF9BFFEE9AFEED99FDE842F06A
:10023F00DC23ACF0D0E0FFD0E0FED0E0FDAB8220BD
:10024F00E7101BEB60BAEC2CFCEF33FFEE33FEED47
:10025F0033FD0202D4E803F830E705C0F075F00073
:10026F00EF2FFFEE33FEED33FD40B830E7C280AA2B
:10027F0075F020800E75F010800575F0087D007EFA
:10028F00007F003392D530D50312039BEC3340101F
:10029F00EF33FFEE33FEED33FDEC33FCD5F0ED2203
:0E02AF00E5F0247EA2D513CC92E7CDCEFF223F
:1002BD00E9D2E7C933E833F892D5EDD2E7CD33EC87
:0702CD0033FC5002B2D52200
:1002D400EC30E7100FBF000C0EBE00080DBD00048B
:1002E4000BEB6014A2D5EB13FCED92E7FD2274FF37
:1002F400FCFDFEFF22E480F8A2D574FF13FC7D8090
:03030400E480EFA3
:0300000002043EB9
:0C043E00787FE4F6D8FD75815B02048530
:10030700BB010CE58229F582E5833AF583E02250AB
:1003170006E92582F8E622BBFE06E92582F8E222F5
:0D032700E58229F582E5833AF583E493220F
:10033400EF8DF0A4A8F0CF8CF0A428CE8DF0A42EDD
:02034400FE2297
:10034600BC000BBE0029EF8DF084FFADF022E4CC9B
:10035600F875F008EF2FFFEE33FEEC33FCEE9DEC64
:10036600984005FCEE9DFE0FD5F0E9E4CEFD22EDAA
:10037600F8F5F0EE8420D21CFEADF075F008EF2FF4
:10038600FFED33FD4007985006D5F0F222C398FDE5
:050396000FD5F0EA2282
:0E039B00C3E49FFFE49EFEE49DFDE49CFC2273
:10044A000203A9E493A3F8E493A34003F68001F21C
:10045A0008DFF48029E493A3F85407240CC8C333B3
:10046A00C4540F4420C8834004F456800146F6DF82
:10047A00E4800B010204081020408090079FE47E6C
:10048A00019360BCA3FF543F30E509541FFEE49377
:10049A00A360010ECF54C025E060A840B8E493A33E
:1004AA00FAE493A3F8E493A3C8C582C8CAC583CA69
:1004BA00F0A3C8C582C8CAC583CADFE9DEE780BE21
:0107C0000038
:00000001FF
