:0C00DE000A083F065B4F666D7D077F6FD0
:1000CA00EF4E600F7D027CC7DCFEDDFCEF1F70F097
:0300DA001E80ED98
:0100DD002200
:10008F00EF1392A2EFC3131392A3EF1313543F1363
:10009F0092A474082DF8E6F5807F017E001200CA45
:0400AF00E4F58022D2
:1000B3007D017F0712008F7D027F0612008F7D0373
:0700C3007F0512008F80E9A8
:03000000020003F8
:0C000300787FE4F6D8FD75811102004AF8
:10000F000200B3E493A3F8E493A34003F68001F254
:10001F0008DFF48029E493A3F85407240CC8C333F2
:10002F00C4540F4420C8834004F456800146F6DFC1
:10003F00E4800B01020408102040809000DEE47E73
:10004F00019360BCA3FF543F30E509541FFEE493B6
:10005F00A360010ECF54C025E060A840B8E493A37D
:10006F00FAE493A3F8E493A3C8C582C8CAC583CAA8
:10007F00F0A3C8C582C8CAC583CADFE9DEE780BE60
:0100EA000015
:00000001FF
