:1001980012020A0526E52670020525750C03FBAA3E
:1001A800257D017F011201D77FE87E0312021E80A0
:0101B800E264
:06023200C2A58F80D2A7D7
:080238007F027EEFDEFEDFFC19
:01024000229B
:0A024D00C2A6120232C2A702023854
:1001B900CFCDCFCECCCE1200427C007D0A120042B8
:0401C900ED2430FFF2
:0A01CD00D2A6120232C2A7020238C5
:1001F400AE07BE0104ED148006BE0209ED243F449F
:0602040080FF12024D22F2
:10020A007F3812024D7F0C12024D7F0612024D7F7B
:04021A000102024D8E
:0A025700AC031201F4AF040201CD64
:060175008B228A2389247D
:10017B001201F4E4FDAB22AA23A9248D827583001E
:0C018B00120003FF60061201CD0D80E998
:010197002245
:0C0142007F0AEA24FFFDE434FFFC7E008D
:08014E008E0D8F0E8C0F8D1039
:100156007F017E00E4FBEBC39510E50F6480F87425
:0E0166008098500AAC0DAD0E1200300B80E8F0
:010174002268
:0401D7008A0A8B0BFA
:1001DB001201F4AA0CEAD39400400D120142AC0AAE
:0801EB00AD0B1201B91A80ED01
:0101F30022E9
:100097001201F4C3EA64809480400B7F2B1201CDD8
:1000A7008A168B17800E7F2D1201CDC3E49BF5179F
:1000B700E49AF516AA15EAD39400400D120142AC52
:0900C70016AD171201B91A80ED03
:0100D000220D
:0400D1008A1A8B1BE1
:1000D5001201F4AA1CEAD3940040297F10120144AE
:1000E500AC1AAD1BCFCDCFCECCCE120042EF540F04
:1000F500FEC3940AEE5004243080022437FF120117
:04010500CD1A80D1BE
:0101090022D3
:04010A008A1F8B209D
:10010E001201F4AA21EAD394004028EA24FFFDE468
:10011E0034FFFC7F027E0012014EAC1FAD20CFCD0E
:10012E00CFCECCCE120042EF54012430FF1201CDBF
:03013E001A80D252
:01014100229B
:10021E00EF4E600F7D027CC7DCFEDDFCEF1F70F041
:03022E001E80ED42
:0102310022AA
:03000000020241B8
:0C024100787FE4F6D8FD75812602019854
:10000300BB010CE58229F582E5833AF583E02250B2
:1000130006E92582F8E622BBFE06E92582F8E222FC
:0D002300E58229F582E5833AF583E4932216
:10003000EF8DF0A4A8F0CF8CF0A428CE8DF0A42EE4
:02004000FE229E
:10004200BC000BBE0029EF8DF084FFADF022E4CCA2
:10005200F875F008EF2FFFEE33FEEC33FCEE9DEC6B
:10006200984005FCEE9DFE0FD5F0E9E4CEFD22EDB1
:10007200F8F5F0EE8420D21CFEADF075F008EF2FFB
:10008200FFED33FD4007985006D5F0F222C398FDEC
:050092000FD5F0EA2289
:00000001FF
