:1000E2000A123F065B4F666D7D077F6F0808FEFDB3
:0A00F200FBF7EFDFBF7F021001F4FF
:1000FD00EF4E600F7D027CC7DCFEDDFCEF1F70F064
:03010D001E80ED64
:0101100022CC
:1000C100EF1392A2EFA2E192A3540324FF92A4742E
:1000D100122DF8E6F5807F017E001200FDE4F58027
:0100E10022FC
:10008F0020B02E7F147E001200FD30B0FD7F147E55
:10009F00001200FD74F42511F51174013510F510DF
:1000AF00D3E51194D0E51094074006751001751132
:0200BF00F42229
:0B01110074082FF8E6FD7F070200C114
:09011C00E4FD7F071200C180F729
:03000000020003F8
:0C000300787FE4F6D8FD75811B02004AEE
:10000F0002011CE493A3F8E493A34003F68001F2EA
:10001F0008DFF48029E493A3F85407240CC8C333F2
:10002F00C4540F4420C8834004F456800146F6DFC1
:10003F00E4800B01020408102040809000E2E47E6F
:10004F00019360BCA3FF543F30E509541FFEE493B6
:10005F00A360010ECF54C025E060A840B8E493A37D
:10006F00FAE493A3F8E493A3C8C582C8CAC583CAA8
:10007F00F0A3C8C582C8CAC583CADFE9DEE780BE60
:0100FC000003
:00000001FF
