:1002AD000C323F065B4F666D7D077F6F4000082760
:1002BD00FEFDFBF7EFDFBF7F0131000409010808E8
:1002CD00060219000002210000011F0101200F018B
:1002DD001E32020D00000223000002250000011D48
:1002ED0001021B0000012F0001080001130001167F
:0F02FD0000013000011000021400000217000081
:0903A400E51F75F00A84FD7F07D6
:1003AD00EF1392A2EFC3131392A3EF1313543F1342
:1003BD0092A474322DF8E6F5807F017E001203E8D9
:0403CD00E4F58022B1
:100362001203A4E51F75F00A84ADF07F061203ADF7
:10037200E52075F00A84FD7F041203ADE52075F0D7
:100382000A84ADF07F031203ADE51E75F00A84FD09
:100392007F011203ADE51E75F00A84ADF0E4FF02A1
:0203A20003ADA9
:100132001203D1E52F7004F517F518E51FB4010F6E
:10014200E520B4100AE51E7006751301751001E56D
:100152001FB40112E520B4100DE51EB41E08E4F52B
:1001620013F51775180220B103020220E51770C3B8
:10017200E51814602D146053240270B77D017F05C9
:100182001203AD7D087F041203AD7D087F031203C5
:10019200AD7D067F021203AD74272531F8E6F5A086
:1001A2008091E513B4010DE4F58074272531F8E65A
:1001B200F5A080117D0A7F051203AD7D0A7F021230
:1001C20003AD1203627530010201351203A4E51F6B
:1001D20075F00A84ADF07F061203ADE52075F00AD2
:1001E20084FD7F041203ADE52075F00A84ADF07F33
:1001F200031203ADE51E75F00A84FD7F011203AD03
:10020200E51E75F00A84ADF0E4FF1203AD7D0A7FAE
:0F021200051203AD7D0A7F021203AD02013522F2
:03000B0002000EE2
:10000E00C0E0C0F0C0D075D000C000C004C005C0B4
:10001E0006C007758A66758CFCE51D60480526E5E9
:10002E0026700205250516C394A0E525940F400CF5
:10003E00752500752600751D00752F01AE25AF269E
:10004E007C017D9012030DED4C6003020121053100
:10005E00E531C39408400375310074272531F8E665
:10006E00F5A0020121E513640A603E0524E5247023
:10007E00020523C394E8E5239403402D75230075F0
:10008E002400751700751801051EE51E943C4019D5
:10009E00751E000520E520943C400E752000051FBE
:1000AE00E51F94184003751F00E51364017064E5A5
:1000BE001864014517705C0515E51570020514AE40
:1000CE0014FF7C017DF412030DED4C70140531E527
:1000DE0031C39408400375310074272531F8E6F5D5
:1000EE00A0C3E51594D0E514940740277514007548
:1000FE001500051EE51E943C4019751E000520E5F1
:10010E0020943C400E752000051FE51F94184003F7
:10011E00751F00D007D006D005D004D000D0D0D0A7
:04012E00F0D0E032FB
:1003E800EF1FAC0670011E4C600A7D027CC7DCFE64
:0403F800DDFC80ECBC
:0103FC0022DE
:1003D1005389F0438901758A66758CFCC28DD28C74
:0703E100D2A9D2AFC2B9227C
:03000000020221D8
:0C022100787FE4F6D8FD75813D0202688C
:10030D00BC000BBE0029EF8DF084FFADF022E4CCD4
:10031D00F875F008EF2FFFEE33FEEC33FCEE9DEC9D
:10032D00984005FCEE9DFE0FD5F0E9E4CEFD22EDE3
:10033D00F8F5F0EE8420D21CFEADF075F008EF2F2D
:10034D00FFED33FD4007985006D5F0F222C398FD1E
:05035D000FD5F0EA22BB
:10022D00020132E493A3F8E493A34003F68001F2B4
:10023D0008DFF48029E493A3F85407240CC8C333D2
:10024D00C4540F4420C8834004F456800146F6DFA1
:10025D00E4800B01020408102040809002ADE47E82
:10026D00019360BCA3FF543F30E509541FFEE49396
:10027D00A360010ECF54C025E060A840B8E493A35D
:10028D00FAE493A3F8E493A3C8C582C8CAC583CA88
:10029D00F0A3C8C582C8CAC583CADFE9DEE780BE40
:01030C0000F0
:00000001FF
