:1003F4000111000C1C3F065B4F666D7D077F6F008B
:0B040400400812FEFDFBF7EFDFBF7F9A
:05057E0075F00A84FD88
:10058300EF1392A2EFC3131392A3EF1313543F136A
:1005930092A4741C2DF8E6F5807F017E00120655A7
:0405A300E4F58022D9
:1005A700E50ED3943B401BE4F50E0510E510D394FC
:1005B7003B400FE4F510050FE50FD394174003E414
:0305C700F50F220B
:1003B300E50F7F0712057EE50F75F00A84ADF07F28
:1003C30006120583E5107F0412057EE51075F00A19
:1003D30084ADF07F03120583E50E75F00A84FD7F7B
:1003E30001120583E50E75F00A84ADF0E4FF020502
:0103F3008386
:1000D200120628750F0175100F750E371202B08FB8
:1000E2001AE51AB4010C750F0175100F750E3775EC
:1000F2000C011205A7E50C14602D14605224027045
:10010200DB7D017F051205837D097F041205837D56
:10011200027F03120583E4FD7F0212058374122518
:100122000DF8E6F5A080B57D0B7F021205837D0BED
:100132007F051205831203B375A0FFE50FB4019C7E
:10014200E51064107096E50E7092750C02808DE5D4
:1001520011700375A0FFE511B401038513A0E50F2B
:10016200C3940150030200DEE51094105003020014
:10017200DEE50E940350030200DE7D0B7F021205C2
:0E018200837D0B7F051205831203B30200DE9E
:03000B0002000EE2
:10000E00C0E0C0F0C0D075D000C000C004C005C0B4
:03001E0006C00712
:10002100758A66758CFC0509E50970020508D3948B
:10003100A0E508940F400BE50C7007F508F509756C
:100041000C01AE08AF097C017D901201CFED4C701F
:1000510010E50C700C050DE50DD394074003750DEB
:1000610000D3E50994E8E5089403400DE50CB401DB
:1000710008050E750800750900E50CB40208050BAA
:10008100E50B7002050AD3E50994D0E50894074011
:100091000DE50CB40208050E750800750900D3E5DD
:1000A1000B94F4E50A94014017E50CB40212E51132
:1000B10070047F0180027F008F11750A00750B00AB
:1000C100D007D006D005D004D000D0D0D0F0D0E0F9
:0100D10032FC
:10065500EF4E600F7D027CC7DCFEDDFCEF1F70F006
:030665001E80ED07
:01066800226F
:10040F00073D000000010F1E00073600000000002E
:10041F00000007288D89878583818B072F8C88861D
:04042F008482808AB9
:05000300C2B5C2B622E7
:060311008C618D62AB0758
:10031700D2B5E4FD74017E00A805088005C333CE7D
:1003270033CED8F9FFEBF582EF558224FF92B4D292
:10033700B6C2B60DBD08DDE4FD74017E00A8050850
:100347008005C333CE33CED8F9FFE5615EFEE562A3
:100357005F4E24FF92B4D2B6C2B60DBD08DBC2B55C
:010367002273
:02036800A907E3
:10036A00E4FDD2B5FB74017E00A803088005C333FF
:10037A00CE33CED8F9FFE9F582EF558224FF92B445
:10038A00C2B6D2B60BBB08DDE4FBD2B6C2B630B4F5
:10039A000D7401A803088002C333D8FC42050BBBC5
:0803AA0008E8C2B5C2B4AF05BA
:0103B2002228
:10043400E4FDFC7F8E120311E4FA743D2AF8E6FF12
:1004440075F00A84C454F0FEEF75F00A84EE25F0CA
:10045400FF74362AF8A607742F2AF8E6FF74362AA2
:0C046400F8E6FD7C001203110ABA07CE76
:010470002269
:10054F00E4FC74282CF8E6FF12036874362CF8A626
:10055F000774362CF8E6FFC4540F75F00AA4FEEFAB
:0E056F00540F2EFF743D2CF8A6070CBC07D4C9
:01057D00225B
:1002B000E4F56320B1137F14FE12065530B1FD7FC3
:1002C000147E0012065575630120B0147F147E0061
:1002D00012065530B0FD7F147E001206557563027C
:1002E00020B2147F147E0012065530B2FD7F147EBA
:1002F0000012065575630320B3147F147E001206A6
:100300005530B3FD7F147E00120655756304AF634C
:0103100022CA
:06067D00C2A58F80D2A788
:080683007F027EEFDEFEDFFCCA
:01068B00224C
:0A068C00C2A612067DC2A702068373
:1005ED00CFCDCFCECCCE1201CF7C007D0A1201CF64
:0405FD00ED2430FFBA
:0A060100D2A612067DC2A7020683EE
:10063F00AE07BE0104ED148006BE0209ED243F444F
:06064F0080FF12068C2260
:100669007F3812068C7F0C12068C7F0612068C7F4F
:040679000102068CE8
:0A069600AC0312063FAF0402060198
:0605CA008B5E8A5F896070
:1005D00012063FE4FDAB5EAA5FA9608D82758300C1
:0C05E000120190FF60061206010D80E978
:0105EC0022EC
:0C051C007F0AEA24FFFDE434FFFC7E00AF
:080528008E5A8F5B8C5C8D5D27
:100530007F017E00E4FBEBC3955DE55C6480F874AD
:0E0540008098500AAC5AAD5B1201BD0B80E8EA
:01054E00228A
:04060B008A4D8B4E3B
:10060F0012063FAA4FEAD39400400D12051CAC4DC1
:08061F00AD4E1205ED1A80ED4D
:0106270022B0
:1004710012063FC3EA64809480400B7F2B12060171
:100481008A498B4A800E7F2D120601C3E49BF54AEF
:10049100E49AF549AA48EAD39400400D12051CAC30
:0904A10049AD4A1205ED1A80ED87
:0104AA00222F
:0404AB008A528B5393
:1004AF0012063FAA54EAD3940040297F1012051E6A
:1004BF00AC52AD53CFCDCFCECCCE1201CFEF540F28
:1004CF00FEC3940AEE5004243080022437FF120634
:0404DF00011A80D1AD
:0104E30022F6
:0404E4008A578B5850
:1004E80012063FAA59EAD394004028EA24FFFDE403
:1004F80034FFFC7F027E00120528AC57AD58CFCDE3
:10050800CFCECCCE1201CFEF54012430FF1206011A
:030518001A80D274
:01051B0022BD
:100628005389F0438901C28DD28C758A66758CFC1A
:07063800D2A9D2AFC2B92222
:03000000020224D5
:0C022400787FE4F6D8FD75816302026B60
:10019000BB010CE58229F582E5833AF583E0225024
:1001A00006E92582F8E622BBFE06E92582F8E2226E
:0D01B000E58229F582E5833AF583E4932288
:1001BD00EF8DF0A4A8F0CF8CF0A428CE8DF0A42E56
:0201CD00FE2210
:1001CF00BC000BBE0029EF8DF084FFADF022E4CC14
:1001DF00F875F008EF2FFFEE33FEEC33FCEE9DECDD
:1001EF00984005FCEE9DFE0FD5F0E9E4CEFD22ED23
:1001FF00F8F5F0EE8420D21CFEADF075F008EF2F6D
:10020F00FFED33FD4007985006D5F0F222C398FD5D
:05021F000FD5F0EA22FA
:100230000200D2E493A3F8E493A34003F68001F212
:1002400008DFF48029E493A3F85407240CC8C333CF
:10025000C4540F4420C8834004F456800146F6DF9E
:10026000E4800B01020408102040809003F4E47E37
:10027000019360BCA3FF543F30E509541FFEE49393
:10028000A360010ECF54C025E060A840B8E493A35A
:10029000FAE493A3F8E493A3C8C582C8CAC583CA85
:1002A000F0A3C8C582C8CAC583CADFE9DEE780BE3D
:0104330000C8
:00000001FF
