:10039E00EF4E600F7D027CC7DCFEDDFCEF1F70F0C0
:0303AE001E80EDC1
:0103B1002229
:1001AC00E4F52720B1137F14FE12039E30B1FD7FBE
:1001BC00147E0012039E75270120B0147F147E005C
:1001CC0012039E30B0FD7F147E0012039E75270231
:1001DC0020B2147F147E0012039E30B2FD7F147E79
:1001EC000012039E75270320B3147F147E001203A4
:1001FC009E30B3FD7F147E0012039E752704AF273B
:01020C0022CF
:100371005389F0438901C28DD28C758A66758CFCD4
:07038100D2A9D2AFC2B922DC
:0903F300436C6F636B3A003A00A1
:0903D500011A37011C3B011B1742
:10012E001203B21203717BFF7A0379F37D017F0113
:10013E001203137BFF7A0379FA7D067F02120313F3
:10014E007BFF7A0379FA7D037F02120313E51AFB14
:10015E007A00750C027D077F02120354E51CFB7AB0
:10016E0000750C027D047F02120354E51BFB7A001E
:10017E00750C027D017F02120354E51AC3943C40B4
:10018E0005E4F51A051CE51CC3943C4005E4F51C7A
:0E019E00051BE51BC3941840B4E4F51B80AFAD
:03000B000202EB03
:0402EB00C0E0C0D0DF
:1002EF00758CFC758A660519E51970020518C3949B
:0F02FF00E8E51894034008751800751900051AF2
:05030E00D0D0D0E03268
:0603C600C2A58F80D2A742
:0803CC007F027EEFDEFEDFFC84
:0103D4002206
:0A03DF00C2A61203C6C2A70203CC97
:10033600CFCDCFCECCCE12004D7C007D0A12004D23
:04034600ED2430FF73
:0A034A00D2A61203C6C2A70203CC1C
:10038800AE07BE0104ED148006BE0209ED243F4409
:0603980080FF1203DF22CA
:1003B2007F381203DF7F0C1203DF7F061203DF7F19
:0403C200010203DF52
:0A03E900AC03120388AF0402034ABC
:060313008B088A09890A2B
:10031900120388E4FDAB08AA09A90A8D8275830036
:0C03290012000EFF600612034A0D80E96E
:0103350022A5
:0C02B8007F0AEA24FFFDE434FFFC7E0016
:0802C4008E0D8F0E8C0F8D10C2
:1002CC007F017E00E4FBEBC39510E50F6480F874AE
:0E02DC008098500AAC0DAD0E12003B0B80E86E
:0102EA0022F1
:040354008A0A8B0B7B
:10035800120388AA0CEAD39400400D1202B8AC0A22
:08036800AD0B1203361A80ED03
:01037000226A
:10020D00120388C3EA64809480400B7F2B12034A4B
:10021D008A168B17800E7F2D12034AC3E49BF517A8
:10022D00E49AF516AA15EAD39400400D1202B8AC63
:09023D0016AD171203361A80ED0C
:010246002295
:040247008A1F8B205F
:10024B00120388AA21EAD3940040297F101202BA24
:10025B00AC1FAD20CFCDCFCECCCE12004DEF540F77
:10026B00FEC3940AEE5004243080022437FF12039D
:04027B004A1A80D1CA
:01027F00225C
:040280008A248B251C
:10028400120388AA26EAD394004028EA24FFFDE456
:1002940034FFFC7F027E001202C4AC24AD25CFCD16
:1002A400CFCECCCE12004DEF54012430FF12034ABE
:0302B4001A80D2DB
:0102B7002224
:030000000200A259
:0C00A200787FE4F6D8FD7581270200E9A4
:10000E00BB010CE58229F582E5833AF583E02250A7
:10001E0006E92582F8E622BBFE06E92582F8E222F1
:0D002E00E58229F582E5833AF583E493220B
:10003B00EF8DF0A4A8F0CF8CF0A428CE8DF0A42ED9
:02004B00FE2293
:10004D00BC000BBE0029EF8DF084FFADF022E4CC97
:10005D00F875F008EF2FFFEE33FEEC33FCEE9DEC60
:10006D00984005FCEE9DFE0FD5F0E9E4CEFD22EDA6
:10007D00F8F5F0EE8420D21CFEADF075F008EF2FF0
:10008D00FFED33FD4007985006D5F0F222C398FDE1
:05009D000FD5F0EA227E
:1000AE0002012EE493A3F8E493A34003F68001F239
:1000BE0008DFF48029E493A3F85407240CC8C33353
:1000CE00C4540F4420C8834004F456800146F6DF22
:1000DE00E4800B01020408102040809003D5E47EDA
:1000EE00019360BCA3FF543F30E509541FFEE49317
:1000FE00A360010ECF54C025E060A840B8E493A3DE
:10010E00FAE493A3F8E493A3C8C582C8CAC583CA08
:10011E00F0A3C8C582C8CAC583CADFE9DEE780BEC0
:0103DE00001E
:00000001FF
