:0F09340054656D70657261747572653A002E00BE
:100462001209527FE87E031208E612090E7BFF7A18
:100472000979347D017F0112078F12095212071682
:100482008F328E318D308C2FE4FFFEFDFCAB32AA11
:1004920031A930A82F1201A9501E7B2D7D017F02A8
:1004A200120975AF32AE31AD30AC2F1202228F324B
:1004B2008E318D308C2F80097B2B7D017F021209BA
:1004C20075AF32AE31AD30AC2F120271AB07AA0656
:1004D2007522037D027F021207D07BFF7A097941E0
:1004E2007D057F0212078F7F007E407D1C7C46AB1C
:1004F20032AA31A930A82F120003120271E47B1034
:100502007A27F9F81203C27522047D067F021207C8
:04051200D002047C93
:1008E600EF4E600F7D027CC7DCFEDDFCEF1F70F073
:0308F6001E80ED74
:0108F90022DC
:0509A200E4AF3FF53F4A
:0109A700222D
:1008BA00E4FF20B1010F20B0027F0220B2027F03C1
:0508CA0020B3027F04D1
:0108CF002206
:1008FA00853D3E1208BA8F3DE53E6007E53D70032F
:03090A00853E3FE8
:01090D0022C7
:06094300C2A58F80D2A7BF
:080949007F027EEFDEFEDFFC01
:010951002283
:0A096B00C2A6120943C2A7020949FF
:1007B200CFCDCFCECCCE1203317C007D0A120331D5
:0407C200ED2430FFF3
:0A07C600D2A6120943C2A702094996
:1008D000AE07BE0104ED148006BE0209ED243F44BC
:0608E00080FF12096B22EB
:10090E007F3812096B7F0C12096B7F0612096B7F01
:04091E000102096B5E
:0A097500AC031208D0AF040207C65D
:06078F008B1E8A1F892069
:100795001208D0E4FDAB1EAA1FA9208D8275830027
:0C07A5001202F2FF60061207C60D80E988
:0107B1002225
:0C06B3007F0AEA24FFFDE434FFFC7E0017
:0806BF008E238F248C258D266B
:1006C7007F017E00E4FBEBC39526E5256480F87483
:0E06D7008098500AAC23AD2412031F0B80E85C
:0106E50022F2
:0407D0008A208B21CF
:1007D4001208D0AA22EAD39400400D1206B3AC202A
:0807E400AD211207B21A80EDED
:0107EC0022EA
:100608001208D0C3EA64809480400B7F2B1207C67F
:100618008A2C8B2D800E7F2D1207C6C3E49BF52DE7
:10062800E49AF52CAA2BEAD39400400D1206B3AC39
:090638002CAD2D1207B21A80ED61
:010641002296
:040642008A358B3634
:100646001208D0AA37EAD3940040297F101206B5C3
:10065600AC35AD36CFCDCFCECCCE120331EF540F65
:10066600FEC3940AEE5004243080022437FF12079A
:04067600C61A80D14F
:01067A00225D
:04067B008A3A8B3BF1
:10067F001208D0AA3CEAD394004028EA24FFFDE4F4
:10068F0034FFFC7F027E001206BFAC3AAD3BCFCDEC
:10069F00CFCECCCE120331EF54012430FF1207C658
:0306AF001A80D2DC
:0106B2002225
:10076B008F408C418D421209897FA01207421209DA
:10077B005FAF4012074212095FAF421207421209E4
:04078B005F02099B65
:0206E6008F4340
:1006E8001209897FA012074212095FAF431207421D
:1006F80012095F1209897FA112074212095F1207C6
:0D070800ED8F447F0112097F12099BAF4461
:0107150022C1
:09098900D2A0D2A1C2A0C2A12299
:07099B00C2A0D2A1D2A022EC
:02074200AD0701
:10074400E4FB74807E00A803088006CEA2E713CEE3
:1007540013D8F8FFEDF582EF558224FF92A0D2A1C1
:06076400C2A10BBB08DC82
:01076A00226C
:1007ED00D2A0E4FED2A130A00D7480A8060880022C
:0C07FD00C313D8FC4207C2A10EBE08E8DE
:0108090022CC
:0A097F00EF24FF92A0D2A1C2A12232
:0B095F00D2A0D2A1A2A0E433FFC2A1ED
:01096A00226A
:1008A3005389F0438901C28DD28C758A66758CFC9D
:0708B300D2A9D2AFC2B922A5
:100825000909000A0A0A0A0A0A0A0A0C123F065BA3
:090835004F666D7D077F6F0040E6
:09099200AE0574092FF8A6062237
:1005A200E4F580EF14B4080050549005BA75F003D6
:1005B200A4C58325F0C583730205D20205D60205C0
:1005C200DA0205DE0205E20205EA0205F20205FA96
:1005D200D2A4800ED2A48012D2A48016D2A4801AF1
:1005E200C2A4D2A3D2A28016C2A4D2A3C2A2800E57
:1005F200C2A4C2A3D2A28006C2A4C2A3C2A274127F
:060602002DF8E6F5802250
:10080A0074092508F8E6FD7C00AF081205A2050860
:0A081A00E508C394094003750801C6
:0108240022B1
:0D09520012083F7FCC1208597F440208595B
:1007160012083F7FCC1208597FBE12085912087280
:100726008F1E120872EFFEE51EFFFDAC06EC1202EC
:0B07360038E4FBFA7980784112010CD6
:010741002295
:10083F00D2B7C2B77FE3DFFED2B77F1DDFFEA2B70D
:09084F00E433FE7FE3DFFEAF0697
:01085800227D
:10092200C2B77E04DEFEEF24FF92B77E17DEFED250
:01093200B70D
:0109330022A1
:10088B00C2B77F02DFFED2B77F02DFFEA2B7E4332F
:07089B00FE7F17DFFEAF0630
:0108A2002233
:02085900AD07E9
:10085B00E4FC7401A804088002C333D8FC5DFF12CA
:06086B0009220CBC08ECA0
:010871002264
:10087200E4FDFC12088BEFA804088002C333D8FC05
:0808820042050CBC08EDAF05B6
:01088A00224B
:10000300EC4D6011E8497017ED33EC3304600DE4F7
:10001300FCFFFEFD22E933E8330470F80202DD122F
:1000230002A858046009E4CC248150062850090230
:1000330002E72840030202E4C0E0EB4A7044B980BF
:1000430006D0E0FB0202D3EF4E701CBD8008EBFF2D
:10005300EAFEE9FD80EBE98DF0A4FEE5F00200EC99
:10006300E9CDF9EAFEEBFFEF89F0A4FCE5F0CE89D8
:10007300F0A42EFFE435F0CD89F0A42DFEE435F095
:100083008067EF4E7005BD80D780C3EF8BF0A4ACC3
:10009300F0EE8BF0A42CFCE435F0F8EF8AF0A42CFE
:1000A300E5F038FCE433CB8DF0A42CFCE5F03BF811
:1000B300EE8AF0A42CFCE5F038F8E433CF89F0A401
:1000C3002CFCE5F038CF3400CE89F0A42FFFE5F007
:1000D3003EFEE433C98DF0A42EFEE5F039CD8AF05F
:1000E300A42FFFE5F03EFEE43DFD33D0E0FB5007D7
:1000F3000BBB000F0202E7EC2CFCEF33FFEE33FEE9
:06010300ED33FD0202BF16
:100109000202E7EC5D046005E8590470030202DDB0
:100119001202A8580460F6EC4860F2EC7004FDFE87
:10012900FF22C860DB2481C85009C39860025006C9
:100139000202E49850CAF582E9294B4A7005AB825C
:100149000202D375F0007C1A7880C3EF9BEE9AED1A
:1001590099400DC3EF9BFFEE9AFEED99FDE842F041
:10016900DC23ACF0D0E0FFD0E0FED0E0FDAB822094
:10017900E7101BEB60BAEC2CFCEF33FFEE33FEED1E
:1001890033FD0202BFE803F830E705C0F075F0005F
:10019900EF2FFFEE33FEED33FD40B830E7C280AA02
:1001A90074F8CC6480CCC86480C8F58204604FC3FD
:1001B900EB9FF5F0EA9E42F0E99D42F0E89C45F09C
:1001C900603C501DE5825FFFE582D313CB5BCBF426
:1001D9002B5582FB50280ABA002409B9002008804F
:1001E9001DE5825BFBE582D313CF5FCFF4C3132FE9
:1001F9005582FF50090EBE00050DBD00010CC3EB71
:100209009FF5F0EA9E42F0E99D42F0E89C45F060D6
:0902190007CC4820E701B3EC22F8
:10022200ED33EC33600A047003BD8004ECB2E7FCEA
:0102320022A9
:1002330075F020800E75F010800575F0087D007E46
:10024300007F003392D530D503120454EC334010B1
:10025300EF33FFEE33FEED33FDEC33FCD5F0ED224F
:0E026300E5F0247EA2D513CC92E7CDCEFF228B
:10027100EDD2E7CD33EC3392D524814006E4FFFE85
:10028100FDFC22FCE4CFCECDCC24E0501174FF80E4
:10029100EDC3CC13CCCD13CDCE13CECF13CF047081
:0702A100F030D5DE02045429
:1002A800E9D2E7C933E833F892D5EDD2E7CD33EC9C
:0702B80033FC5002B2D52215
:1002BF00EC30E7100FBF000C0EBE00080DBD0004A0
:1002CF000BEB6014A2D5EB13FCED92E7FD2274FF4C
:1002DF00FCFDFEFF22E480F8A2D574FF13FC7D80A5
:0302EF00E480EFB9
:03000000020516E0
:0C051600787FE4F6D8FD75814402055D95
:1002F200BB010CE58229F582E5833AF583E02250C1
:1003020006E92582F8E622BBFE06E92582F8E2220A
:0D031200E58229F582E5833AF583E4932224
:10031F00EF8DF0A4A8F0CF8CF0A428CE8DF0A42EF2
:02032F00FE22AC
:10033100BC000BBE0029EF8DF084FFADF022E4CCB0
:10034100F875F008EF2FFFEE33FEEC33FCEE9DEC79
:10035100984005FCEE9DFE0FD5F0E9E4CEFD22EDBF
:10036100F8F5F0EE8420D21CFEADF075F008EF2F09
:10037100FFED33FD4007985006D5F0F222C398FDFA
:050381000FD5F0EA2297
:1003860075F008758200EF2FFFEE33FECD33CDCC2E
:1003960033CCC58233C5829BED9AEC99E5829840B1
:1003A6000CF582EE9BFEED9AFDEC99FC0FD5F0D68E
:1003B600E4CEFBE4CDFAE4CCF9A88222B800C1B9B8
:1003C6000059BA002DEC8BF084CFCECDFCE5F0CBF6
:1003D600F97818EF2FFFEE33FEED33FDEC33FCEB2F
:1003E60033FB10D703994004EB99FB0FD8E5E4F9EA
:1003F600FA227818EF2FFFEE33FEED33FDEC33FCD7
:10040600C933C910D7059BE99A4007EC9BFCE99ACA
:10041600F90FD8E0E4C9FAE4CCFB2275F010EF2F0F
:10042600FFEE33FEED33FDCC33CCC833C810D7070F
:100436009BEC9AE899400AED9BFDEC9AFCE899F84A
:0E0446000FD5F0DAE4CDFBE4CCFAE4C8F922DD
:0E045400C3E49FFFE49EFEE49DFDE49CFC22B9
:10052200020462E493A3F8E493A34003F68001F289
:1005320008DFF48029E493A3F85407240CC8C333DA
:10054200C4540F4420C8834004F456800146F6DFA9
:10055200E4800B0102040810204080900825E47E0C
:10056200019360BCA3FF543F30E509541FFEE4939E
:10057200A360010ECF54C025E060A840B8E493A365
:10058200FAE493A3F8E493A3C8C582C8CAC583CA90
:10059200F0A3C8C582C8CAC583CADFE9DEE780BE48
:01083E0000B9
:00000001FF
