:1000C30075A0FE1200E012000E8F0AE50A60F70524
:0D00D3000BE50BC3940140EEE4F50B80E952
:03000B0002006F81
:0B006F00C0E0C0D075D000C000C0078A
:10007A00758CFC758A660509E50970020508D39432
:10008A00F4E50894014029750800750900E50B702C
:10009A000DAFA07801EF08800123D8FDF5A0E50B8C
:1000AA00B4010DAFA07801EF08800103D8FDF5A0D7
:0900BA00D007D000D0D0D0E03214
:1000E0005389F0438901C28DD28C758A66758CFC68
:0700F000D2A9D2AFC2B92270
:1000F700EF4E600F7D027CC7DCFEDDFCEF1F70F06A
:030107001E80ED6A
:01010A0022D2
:10000E00E4F50C20B1137F14FE1200F730B1FD7F22
:10001E00147E001200F7750C0120B0147F147E00C0
:10002E001200F730B0FD7F147E001200F7750C023F
:10003E0020B2147F147E001200F730B2FD7F147EC2
:10004E00001200F7750C0320B3147F147E0012000B
:10005E00F730B3FD7F147E001200F7750C04AF0C61
:01006E00226F
:0300000002010BEF
:0C010B00787FE4F6D8FD75810C0200C37B
:00000001FF
