:1002A70012041612040A1203CBEF604B1204138FC9
:1002B7001EE51EB41603E4F51FE51EB40C03751FF7
:1002C70001E51EB41803751F02E51EB45E03751F12
:1002D70003E51F7004FF120419E51FB401057F32FF
:1002E700120419E51FB402057F4B120419E51FB468
:1002F70003057F64120419E51FFD7C007F011202CC
:030307003A80A396
:1003AD005389F0438901C28DC28C758A18758CFCF6
:0103BD00221D
:0B03E500AD07AC068C8CAF058F8A22A0
:0903FB00AF8CEFFEAD8AEDFF228C
:06040400EF24FF928C22A0
:10000600EF1FAC0670011E4C600A7D027CEFDCFE21
:04001600DDFC80ECA1
:01001A0022C3
:10030A00E4F52220B1137F14FE12000630B1FD7FFE
:10031A00147E0012000675220120B0147F147E009C
:10032A0012000630B0FD7F147E001200067522020C
:10033A0020B2147F147E0012000630B2FD7F147EB4
:10034A000012000675220320B3147F147E001200E7
:10035A000630B3FD7F147E00120006752204AF2218
:01036A002270
:0C03BE000A143F065B4F666D7D077F6FE1
:10023A00EF14B40800505490024F75F003A4C5831C
:10024A0025F0C5837302026702026B02026F020283
:10025A007302027702027F02028702028FD2A4800F
:10026A000ED2A48012D2A48016D2A4801AC2A4D21A
:10027A00A3D2A28016C2A4D2A3C2A2800EC2A4C2D2
:10028A00A3D2A28006C2A4C2A3C2A274142DF8E605
:0D029A00F5807F017E00120006E4F5802251
:0B03F000D288C289D2A8D2AFD2B822B6
:06040A001203AD0203F035
:0D03CB00E50F6006E4F50F7F01227F0022A0
:0D03D800E50D6006E4F50D7F01227F002297
:03041000AF0C220C
:03041300AF0B220A
:0300030002001EDA
:10001E00C0E0C0F0C083C082C0D075D000C000C0A8
:10002E0001C002C003C004C005C006C007E5081425
:10003E00601A1470030200C524026003020193E4E7
:10004E00FFFE1203E57F0112040480651203FB8E8E
:10005E00098F0AE4FFFE1203E5D3E50A94A6E5092B
:10006E00942E40047F0180027F00C3E50A948EE542
:10007E0009943250047E0180027E00EE5F600675A8
:10008E000802020193D3E50A948CE50994264004F4
:10009E007F0180027F00C3E50A9474E509942A501B
:1000AE00047E0180027E00EE5F6006750D01020186
:1000BE008B7508010201931203FB8E098F0AE4FF70
:1000CE00FE1203E5D3E50A9414E509940240047F79
:1000DE000180027F00C3E50A94FCE50994055004F3
:1000EE007E0180027E00EE5F6022E50E1313135434
:1000FE001F2410F8C000E6FFE50E5407FE7401A899
:10010E0006088002C333D8FCF45F8045D3E50A9419
:10011E0026E509940640047F0180027F00C3E50AAC
:10012E00940EE509940A50047E0180027E00EE5F73
:10013E006026E50E131313541F2410F8C000E6FFBB
:10014E00E50E5407FE7401A806088002C333D8FCDE
:10015E004FD000F6050E8006750E00750801E50EEF
:10016E00C394204020750E00E511F4B5100FE51371
:10017E00F4B5120985100C85120B750F01E4FF12F0
:10018E000404750800D007D006D005D004D003D0E3
:10019E0002D001D000D0D0D082D083D0F0D0E032C7
:1003960053890F438910C28FD28E758BA4758DFF3A
:0703A600D2ABD2AFC2BB22B3
:0304160002039648
:030419008F20220F
:03001B0002036B72
:10036B00C0E0C0F0C0D0758BA4758DFF0521E521D1
:10037B0075F0648485F021E521C395205004D2905B
:0B038B008002C290D0D0D0F0D0E03251
:030000000201AE4C
:0C01AE00787FE4F6D8FD7581220201F58F
:1001BA000202A7E493A3F8E493A34003F68001F2B2
:1001CA0008DFF48029E493A3F85407240CC8C33346
:1001DA00C4540F4420C8834004F456800146F6DF15
:1001EA00E4800B01020408102040809003BEE47EE4
:1001FA00019360BCA3FF543F30E509541FFEE4930A
:10020A00A360010ECF54C025E060A840B8E493A3D0
:10021A00FAE493A3F8E493A3C8C582C8CAC583CAFB
:10022A00F0A3C8C582C8CAC583CADFE9DEE780BEB3
:0103CA000032
:00000001FF
