:10071000525443002F20202F202020003A20203A3E
:100720000020202020200059656172200020200038
:100730004D6F6E74680044617465200044617920D7
:100740002000486F757220004D696E2020005365AF
:040750006320200002
:10058F00851D3AE53AFB7A007531027D077F01122E
:10059F00093D851E39E539FB7A007531027D0A7FE9
:1005AF000112093D851F38E538FB7A007531027D50
:1005BF000D7F0112093D85203DE53DFB7A00753128
:1005CF00027D017F0212093D85213EE53EFB7A0047
:1005DF007531027D047F0212093D85223BE53BFB0D
:1005EF007A007531027D077F0212093D85233CE5B4
:0E05FF003CFB7A007531017D107F0102093D41
:10000E0012099B12000312095A7BFF7A0779107DA1
:10001E00017F011208FC7BFF7A0779147D097F01AD
:10002E001208FC7BFF7A07791C7D037F021208FC05
:06003E001207541208A88D
:1000440012060D8F40E540B4010C052CE52CD39429
:10005400084003E4F52CE52CB4090050E390006853
:10006400F828287302008302009802010F02017528
:100074000202520202CB02033D0203AD0204257BBD
:10008400FF7A0779217D0C7F021208FC1208A8125E
:10009400058F80ACE4F524741D2524F8E6FF74254F
:1000A4002524F8A6070524E524B407EB7BFF7A078B
:1000B40079277D0C7F021208FCE540B40202051D7D
:1000C400E540B40308E51D6004151D800CE540B44B
:1000D4000307E51D7003751D63E51DD39463400399
:1000E400E4F51DE540B40406120754E4F52CE53F9D
:1000F400B4010B7BFF7A07792D7D070202B7E51D5A
:10010400FB7A007531027D070202C6E51DFB7A0009
:100114007531027D077F0112093D7BFF7A07793033
:100124007D0C7F021208FCE540B40202051EE54086
:10013400B40302151EE51ED3940C4003751E01E59D
:100144001EC394015003751E0CE540B40406120747
:1001540054E4F52CE53FB4010B7BFF7A07792D7D40
:100164000A0202B7E51EFB7A007531027D0A02021B
:10017400C6E51EFB7A007531027D0A7F0112093D36
:100184007BFF7A0779367D0C7F021208FCE540B4C8
:100194000202051FE540B40302151FE51E64027048
:1001A40032E51D54037016E51FD3941D4003751FDB
:1001B40001E51FC39401505C751F1D8057E51FD3D3
:1001C400941C4003751F01E51FC394015046751F1D
:1001D4001C8041E51E64046011E51E6406600BE5A5
:1001E4001E64096005E51EB40B16E51FD3941E407A
:1001F40003751F01E51FC394015019751F1E801458
:10020400E51FD3941F4003751F01E51FC3940150DC
:1002140003751F1FE51FD3941F4003751F01E51FBE
:10022400C394015003751F1FE540B404061207541C
:10023400E4F52CE53FB4010A7BFF7A07792D7D0DA7
:100244008071E51FFB7A007531027D0D8074E51F16
:10025400FB7A007531027D0D7F0112093D7BFF7A27
:1002640007793C7D0C7F021208FCE540B4020205CC
:1002740023E540B403021523E523D3940740037513
:100284002301E523C394015003752307E540B40417
:1002940006120754E4F52CE523FB7A007531017D41
:1002A400107F0112093DE53FB4010D7BFF7A077908
:1002B4002D7D107F0102040DE523FB7A00753101C9
:1002C4007D107F0102041FE523FB7A007531017D57
:1002D400107F0112093D7BFF7A0779427D0C7F0272
:1002E4001208FCE540B402020520E540B40308E529
:1002F4002060041520800CE540B40307E52070035A
:10030400752017E520D394174003E4F520E540B4A5
:100314000406120754E4F52CE53FB4010D7BFF7A83
:1003240007792D7D017F0202040DE520FB7A00751B
:1003340031027D017F0202041FE520FB7A00753142
:10034400027D017F0212093D7BFF7A0779487D0C0B
:100354007F021208FCE540B402020521E540B40323
:1003640008E52160041521800CE540B40307E5216C
:10037400700375213BE521D3943B4003E4F521E56B
:1003840040B40406120754E4F52CE53FB4010C7B99
:10039400FF7A07792D7D047F02806EE521FB7A00C8
:1003A4007531027D047F028072E521FB7A0075318C
:1003B400027D047F0212093D7BFF7A07794E7D0C92
:1003C4007F021208FCE540B402020522E540B403B2
:1003D40008E52260041522800CE540B40307E522F9
:1003E400700375223BE522D3943B4003E4F522E5F8
:1003F40040B40406120754E4F52CE53FB401107B25
:10040400FF7A07792D7D077F021208FC020044E57C
:1004140022FB7A007531027D077F0212093D02003A
:1004240044E4F52474252524F8E6FF741D2524F8F6
:10043400A6070524E524B407EB1207547BFF7A07CB
:10044400792D7D077F011208FCE522FB7A007531C6
:10045400027D077F0212093D7BFF7A0779217D0C1B
:0B0464007F021208FCE4F52C020044AB
:03000B000207CB1E
:0907CB00C0E0C0D075D000C007E9
:1007D400758A66758CFC0537E53770020536C39457
:1007E400F4E53694014012753600753700E53F7024
:0907F400047F0180027F008F3FA9
:0707FD00D007D0D0D0E0329C
:10098700EF4E600F7D027CC7DCFEDDFCEF1F70F0D1
:030997001E80EDD2
:01099A00223A
:10060D00E4F52D20B1137F14FE12098730B1FD7F63
:10061D00147E00120987752D0120B0147F147E0001
:10062D0012098730B0FD7F147E00120987752D02E7
:10063D0020B2147F147E0012098730B2FD7F147E24
:10064D0000120987752D0320B3147F147E00120943
:10065D008730B3FD7F147E00120987752D04AF2DF1
:01066D00226A
:0609AF00C2A58F80D2A753
:0809B5007F027EEFDEFEDFFC95
:0109BD002217
:0A09BE00C2A61209AFC2A70209B5D4
:10091F00CFCDCFCECCCE1204AE7C007D0A1204AE6A
:04092F00ED2430FF84
:0A093300D2A61209AFC2A70209B54F
:10097100AE07BE0104ED148006BE0209ED243F441A
:0609810080FF1209BE22F6
:10099B007F381209BE7F0C1209BE7F061209BE7F7B
:0409AB00010209BE7E
:0A09C800AC03120971AF04020933F9
:0608FC008B2D8A2E892FCE
:10090200120971E4FDAB2DAA2EA92F8D82758300E9
:0C09120012046FFF60061209330D80E92B
:01091E0022B6
:0C0875007F0AEA24FFFDE434FFFC7E0053
:080881008E328F338C348D356B
:100889007F017E00E4FBEBC39535E5346480F874A1
:0E0899008098500AAC32AD3312049C0B80E8FC
:0108A700222E
:04093D008A2F8B3042
:10094100120971AA31EAD39400400D120875AC2F37
:08095100AD3012091F1A80ED00
:01095900227B
:10079100120971C3EA64809480400B7F2B120933E4
:1007A1008A468B47800E7F2D120933C3E49BF547A0
:1007B100E49AF546AA45EAD39400400D120875ACB7
:0907C10046AD4712091F1A80ED34
:0107CA00220C
:040804008A4A8B4B46
:10080800120971AA4CEAD3940040297F1012087784
:10081800AC4AAD4BCFCDCFCECCCE1204AEEF540FF9
:10082800FEC3940AEE5004243080022437FF1209D4
:04083800331A80D11E
:01083C002299
:04083D008A4F8B5003
:10084100120971AA51EAD394004028EA24FFFDE479
:1008510034FFFC7F027E00120881AC4FAD50CFCD3A
:10086100CFCECCCE1204AEEF54012430FF120933A7
:030871001A80D218
:010874002261
:1008D700071D63021D173B370407160000000000C1
:1008E700000007088D89878583818B070F8C888691
:0408F7008482808AED
:05000300C2B5C2B622E7
:06066E008C2D8D2EAB0760
:10067400D2B5E4FD74017E00A805088005C333CE1D
:1006840033CED8F9FFEBF582EF558224FF92B4D232
:10069400B6C2B60DBD08DDE4FD74017E00A80508F0
:1006A4008005C333CE33CED8F9FFE52D5EFEE52EAB
:1006B4005F4E24FF92B4D2B6C2B60DBD08DBC2B5FC
:0106C4002213
:0206C500A90783
:1006C700E4FDD2B5FB74017E00A803088005C3339F
:1006D700CE33CED8F9FFE9F582EF558224FF92B4E5
:1006E700C2B6D2B60BBB08DDE4FBD2B6C2B630B495
:1006F7000D7401A803088002C333D8FC42050BBB65
:0807070008E8C2B5C2B4AF0559
:01070F0022C7
:10075400E4FDFC7F8E12066EE4FA741D2AF8E6FFAF
:1007640075F00A84C454F0FEEF75F00A84EE25F0A7
:10077400FF74162AF8A607740F2AF8E6FF74162ADF
:0C078400F8E6FD7C0012066E0ABA07CEF3
:010790002246
:1008A800E4FC74082CF8E6FF1206C574162CF8A6AA
:1008B8000774162CF8E6FFC4540F75F00AA4FEEF6F
:0E08C800540F2EFF741D2CF8A6070CBC07D48D
:0108D60022FF
:10095A005389F0438901C28DD28C758A66758CFCE5
:07096A00D2A9D2AFC2B922ED
:03000000020503F3
:0C050300787FE4F6D8FD75815102054AAE
:10046F00BB010CE58229F582E5833AF583E0225042
:10047F0006E92582F8E622BBFE06E92582F8E2228C
:0D048F00E58229F582E5833AF583E49322A6
:10049C00EF8DF0A4A8F0CF8CF0A428CE8DF0A42E74
:0204AC00FE222E
:1004AE00BC000BBE0029EF8DF084FFADF022E4CC32
:1004BE00F875F008EF2FFFEE33FEEC33FCEE9DECFB
:1004CE00984005FCEE9DFE0FD5F0E9E4CEFD22ED41
:1004DE00F8F5F0EE8420D21CFEADF075F008EF2F8B
:1004EE00FFED33FD4007985006D5F0F222C398FD7C
:0504FE000FD5F0EA2219
:10050F0002000EE493A3F8E493A34003F68001F2F4
:10051F0008DFF48029E493A3F85407240CC8C333ED
:10052F00C4540F4420C8834004F456800146F6DFBC
:10053F00E4800B01020408102040809008D7E47E6D
:10054F00019360BCA3FF543F30E509541FFEE493B1
:10055F00A360010ECF54C025E060A840B8E493A378
:10056F00FAE493A3F8E493A3C8C582C8CAC583CAA3
:10057F00F0A3C8C582C8CAC583CADFE9DEE780BE5B
:0108FB0000FC
:00000001FF
