:100BD1005365742050617373776F72643A202020DB
:100BE10000456E7465722050617373776F72643A59
:100BF1002000446F6F72204F70656E656421202064
:100C01002020004D6F746F722052756E6E696E6791
:100C11002E2E2E0057726F6E672050617373776F9F
:100C2100726421200042757A7A657220416C61728A
:100C31006D2E2E2E20005265733A20202020202078
:100C4100202020202020004572723A4469762062DB
:100C5100792030202020200020202020202020204A
:100C61002020202020202020004E756D313A2020A8
:100C71002020202020202020200053656C656374F3
:100C8100204F703A202020202020002B20202D20D2
:100C9100202A20202F202020202020004E756D3278
:100CA1003A20202020202020202020200050617385
:100CB10073776F72642053617665642120005061FF
:100CC1007373776F7264204F4B2120202020004FD7
:100CD10070656E696E6720446F6F722E2E2E200034
:070CE100130C1F173B00027A
:1011CC00016A00C104C106C109C10BC103016D0054
:1011DC00016C00016B00470002130C1F173B00024F
:1011EC005000310000000000000000000000000072
:1011FC000000005000410000000000000000000052
:10120C000000000000004200090014420000000031
:10121C00C10AC107C108C1054100120044001C00ED
:10122C0000000044002000000000410013004400B6
:0F123C002D0000000041002C00C100C101C102C3
:1006BA0075F00A120405AFF0EF24302290002012E0
:1006CA000571EC020346E52725E02451F582E4345E
:1006DA0000F58322AB060E74312BF582E43400F563
:1006EA008322E47F0AFEFDFC12057D1204FEA804A3
:1006FA00A905AA06AB07AF22E4FCFDFE2275F00AA3
:10070A0012040524302274142522F582E43400F5FB
:10071A0083227BFF7D017F0122E0FAA3E0FBFF7CBD
:10072A00007D0AAE020204BBAE050D74412EF582AD
:10073A00E43400F583227BFF7D017F0122E5272532
:10074A00E02452F582E43400F583221201161203E2
:10075A00847C007D641204BB900000ECF0A3EDF0F1
:10076A00227A0C79597BFF7D017F0222120589903A
:10077A00002CE004F0E4F56BD204227C007D0A022E
:10078A000466AF6B1217ED8F22E52222900013F058
:10079A00900012228F468E458D448C4322AF46AE7E
:1007AA0045AD44AC4322AF26AE25AD24AC23228509
:1007BA00278275830012042775F00A84227447255C
:1007CA0022F8A6070522E52222740B2522F582E4E7
:1007DA003400F58322120384900009EEF0A3EFF0AF
:1007EA00227B017A0079317D017F01227B017A0027
:1007FA0079417D017F0222E4FFFEFDFCD302055B05
:10080A00E47B0AFAF9F8229000637401F0E4F56BCC
:01081A0022BB
:101C7300E4F51EE4FDFCAF1E121B587F057E001227
:0B1C83000006051EE51EC3940740E8A4
:011C8E002233
:0C1D8500121D5EEF6005121E138F6B2212
:101BDE00E56BB4460EE56C0475F0038485F06CE499
:0E1BEE00F56B22E56BB44505E4F56CF56B2252
:1017ED00EF1205C6181F0818160C1813161819181D
:1017FD0018221C182842182E4A182B5218255A1830
:10180D001C5E000018317F00227F01227F02227FA3
:10181D0003227F04227F05227F06227F07227F0875
:07182D00227F09227FFF2248
:10147D007F18121A2BEF64AA6042E4F522E52224AC
:10148D0001FFE433FE120785120710EDF0E522246B
:10149D0010FF120710E0FD7C00121B587F057E0027
:1014AD001200060522E522C3940840D17DAA7C00D6
:1014BD007F18121B587F057E00020006E4F522E519
:1014CD00222410FF121A2B120710EFF00522E5222D
:0514DD00C3940840EA81
:0114E20022E7
:101B0A00E4F522E5222410FF74142522120714E0BA
:101B1A00FD7C00121B587F057E001200060522E597
:061B2A0022C3940840DD17
:011B30002292
:101B9F00E4FF74142F120714E0FE74242FF582E46F
:0F1BAF003400F583E06E6002C3220FBF08E4D359
:011BBE002204
:1014E3007BFF300C067A0B79D180047A0B79E27D8D
:1014F300017F01121B7CE4F522900062E0FFE522EC
:10150300C39F5008E52204FD7B2A8016900062E009
:10151300B5220930060604FD7B5F8006E52204FD43
:101523007B2D7F02121DBD0522E522C3940840C90D
:101533007522097B20AD227F02121DBD0522E52203
:05154300D3941040EEFE
:011548002280
:101CAB007A0B79F312071C121B7C7A0C790412073E
:0B1CBB006F121B7C7FB87E0B0200063E
:101BFC007A0C791512071C121B7C7BFF7A0C792648
:0E1C0C007D017F02121B7C7FB87E0B0200065A
:101A5B0090001C12059500000000900020120595C7
:101A6B0000000000E4900013F090002D120595008B
:0D1A7B00000000E490002CF0900012F0221A
:08126D008F368E358D348C3371
:10127500E4F54212079EC20CEC335008D20C12055D
:101285004D12079E1207A7EC4D4E4F7007F53A75A4
:1012950042018036AB46AA45A944A843120801403D
:1012A50029E5429408502312080A1207A712183498
:1012B500AF03AE420542743A2EF8A6071207A712ED
:1012C500080A12183412079E80CA300C0BAD380577
:1012D500387B2DAF37121DBD854239E539D39400D2
:1012E5004016AD38053874392539F8E62430FBAF9A
:0812F50037121DBD153980E31D
:0112FD0022CE
:08081B008F268E258D248C230D
:100823007A0C7937120740121B7C752D01E4FFFE09
:10083300FDFCAB26AA25A924A8231202BC5019AD9E
:100843002D052D7B2D7F02121DBD1207B01203351E
:100853008F268E258D248C231207B01203848F2AB2
:100863008E298D288C27EC120346A804A905AA0615
:10087300AB071207B01200217B007A40791C78463F
:100883001201161203848E2B8F2CAF2AAE29AD28AA
:10089300AC27753702852D3812126DAF2AAE29ADFC
:0D08A30028AC27EC4D4E4F7004052D802F22
:1008B0008F328E318D308C2FAB32AA31A930A82FD8
:1008C000120801401AAF32AE31AD30AC2F12080A17
:0F08D0001218348F328E318D308C2F052D80D938
:1008DF00900013E06404704FE52DC3940B5048ADA6
:1008EF002D052D7B2E7F02121DBDAE2BAF2C7C0351
:1008FF007DE8120466120785ED2430FBAD2D052D22
:10090F007F02121DBD7D6412094E7D0A12094EAD84
:10091F002D052DC005AE2BAF2C120785ED2430FB16
:10092F00D0057F02121DBD852D2EE52ED3941050BC
:0E093F000D7B20AD2E7F02121DBD052E80EC1B
:10094D0022AE2BAF2C7C001204667C007D0A1204B3
:0F095D0066ED2430FBAD2D052D7F02121DBD224E
:100F9B00900013E024FE602C14604714606224035D
:100FAB0060030210641206C6C004C005C006C00769
:100FBB0090001C1206C9D003D002D001D000120041
:100FCB00250210331206C6C004C005C006C0079028
:100FDB00001C1206C9D003D002D001D00012002190
:100FEB0080461206C6C004C005C006C00790001C90
:100FFB001206C9D003D002D001D0001201168028EE
:10100B00900020120571EC4D4E4F60241206C6C0A5
:10101B0004C005C006C00790001C1206C9D003D03F
:10102B0002D001D00012021F90002D120589801AE8
:10103B007A0C7948120740121B7C12076B121B7C2F
:10104B007FDC7E05120006021A5B90002D120571E3
:0A105B0012081B9000127403F0222B
:10111D00900012E014602114603824026003021163
:10112D00AD7A0C796A1211AE400690001C1211BFF7
:10113D007BFF7A0C795980137BFF7A0C797B7D01CB
:10114D007F01121B7C7BFF7A0C798C7D017F020263
:10115D001B7C7A0C799D1211AE4006900020121165
:10116D00BF900013E0FFB401047B2B8017EFB40296
:10117D00047B2D800F900013E0B403047F2A8002BE
:10118D007F2FAB077D017F02121DBD7523027B20D2
:10119D00AD237F02121DBD0523E523D3941040EE30
:1011AD00227BFF7D017F01121B7C90002CE0D394EC
:0F11BD00002212057175370175380612126D2266
:10170F00121E05E4F522AF22121A2B1207C7C3943B
:07171F000740F3E547700FDE
:0F172600F522E522900CE193FF1207C7B407F3F9
:1017350012138AE4F52274472522F8E6FD3395E075
:10174500FCAF22121B587F057E001200060522E51C
:0617550022C3940740E0EE
:01175B00226B
:100CE8001219999000317432F0A37430F0900035E5
:100CF800742DF0900038F0E547120707900033F0A4
:100D0800E5471206BA900034F0E54812070790004C
:100D180036F0E5481206BA900037F0E549120707A1
:100D2800900039F0E5491206BA90003AF07F069033
:100D3800003B7420F0A3DFFCE4900040F01207EBC6
:100D4800121B7C900043743AF0900046F0E54A127A
:100D58000707900041F0E54A1206BA900042F0E514
:100D68004B120707900044F0E54B1206BA90004575
:100D7800F0E54C120707900047F0E54C1206BA90D0
:100D88000048F0A37420F0A3F0900009120723EFA5
:100D9800243090004BF0AF03120729ED2430A3F064
:100DA800A3742EF0900000120723EF243090004E19
:100DB800F07C007D0AAF03AE021204BBED2430A321
:0E0DC800F0A37443F0E4A3F01207F6021B7CC4
:1019CB00E54C7F051219F2E54C7007E54B7F0412CD
:1019DB0019F2E54B7010E54C700CE54AFD3395E0C0
:1019EB00FC7F03121B5822FD3395E0FC121B58227F
:081549008F238B248A258926DB
:10155100E523D394104003752310900061E523F037
:10156100E4A3F0A3F0F527E52775F002A4C39523C2
:101571007480F865F0985022AB24AA25A926AE0202
:10158100AF01EF4E60141207B9FF1206D0EFF0124F
:1015910007B9120747E5F0F0800A1206D0E4F0120D
:0C15A1000747E4F00527E527640670BB4F
:0115AD00221B
:1019FB00900061E06029900063E07023900062E04A
:101A0B001206D4EFF0900062E004F0900061E0FF6A
:101A1B00A3E0C39F4009A37401F0E4900062F0229D
:10106500E4FEFD0E24311206E47432F00E743124D0
:10107500011206E47430F0E4FC74512C1206D6E03B
:10108500FF900062E0B5040B300C081206DE7420F8
:10109500F0800FEF2430FBAA060E74312A1206E405
:1010A500EBF0EC64016003BC03061206DE742DF060
:1010B5000CBC06C5EEC3941050081206DE7420F071
:1010C50080F2E4900040F07C0674512C1206D6E0C4
:1010D500FF900062E0B5040B300C08120732742053
:1010E500F0800FEF2430FEAB050D74412B1207384D
:1010F500EEF0EC64076003BC0906120732743AF09F
:101105000CBC0CC5EDC3941050081207327420F0C6
:0711150080F2E4900051F0AC
:01111C0022B0
:100EBF00200030121999E4F52274472522F8E6FF35
:100ECF0074652522F582E43400F583EFF00522E501
:100EDF0022B407E57B017A0079657F0C121549D2A0
:100EEF0000D204AF6B1217EDEFF460081219FB7507
:100EFF006BFFD204300415A206920C121065120774
:100F0F00EB121B7C1207F6121B7CC204900063E0ED
:100F1F006079E4F522E5221206D2E075F00AA4FF0B
:100F2F00E522120749E02FFF1207D3EFF00522E564
:100F3F0022B406E190006BE0900011F0E4F522126C
:100F4F0007D3E0FF74472522F8A6070522E522B450
:100F5F0007ED12138A7F0A7E00120006121999E418
:100F6F00F52274472522F8E6FD3395E0FCAF2212F7
:100F7F001B587F057E001200060522E522C3940749
:0B0F8F0040E0C200E4900063F0C20AE2
:010F9A002234
:1016C000E56C704AE56D700E300B43D2B5121D7893
:0F16D000C20B756D0122E56D6401703230032F7E
:1016DF00D2B5121AB58F258E248D238C22E4FFFEEE
:1016EF007DC87C42AB25AA24A923A822120755AF97
:0F16FF0025AE24AD23AC221207DFC203E4F56D44
:01170E0022B8
:10192E00E56C7031E56BB44405B20AE4F56B300A30
:10193E0011E56BB40703120811120EBF300616C262
:10194E000622300405120CE8C2043009051219CB28
:06195E00C2091216C022AE
:100DD600E56C64016003C2012220010D120EA9C256
:100DE60007C208C205D201D204E56BB4440EB207AD
:100DF600120EA9C208C205E4F56BD204AF6B121736
:100E0600EDEFF46023900062E03007092414F582C8
:100E1600E4340080072424F582E43400F583EFF0FF
:100E26001219FBE4F56BD204E56BB4070312081143
:100E3600300409A207920C1214E3C204900063E086
:100E4600606030071B121B0A7A0C79AE120EB512BF
:100E5600076B121B7C7FDC7E05120006C207803002
:100E6600121B9F5024D2087A0C79BF120EB57BFF55
:100E76007A0C79D07D017F02121B7C7FE87E0312FB
:100E86000006121CABC2088007D205121BFCC20565
:100E96007B007A0079007F08121549E4900063F020
:020EA600D20474
:100EA800227B007A0079007F08121549227BFF7D9A
:070EB800017F01121B7C22E7
:10096C00E56C64026003C20222200207121A5BD2F9
:10097C0002D204900012E0146057147003020A2A89
:10098C00147003020A7E24036003020AA512078C6A
:10099C00F4600F90001C1206EC1204F190001C1273
:1009AC000776E56BB4070F9000127401F0E4900029
:1009BC002CF0F56BD204E56B64156003020AA5906C
:1009CC00001C12059500000000E490002CF0020AB7
:1009DC00A1E56BB40908740112079604802DE56B30
:1009EC00B4150774021207968021E56BB40C0C90B9
:1009FC0000137403F0900012148010E56BB4180E01
:100A0C009000137404F0900012740212077EE56BD0
:100A1C0064446003020AA5121A5BE4020AA11207DD
:100A2C008CF46035900013E0FFB4030B90002CE0C5
:100A3C00C394044002800EEF6403600E90002CE01F
:100A4C00C394084005E4F56B804F9000201206EC2F
:100A5C001204F1900020120776E56BB40708120F10
:100A6C009BE4F56BD204E56B6444702D121A5BE4C5
:100A7C00802312078CB4FF05E56BB4441C121A5B7F
:100A8C00E522F4600F12070090001C1205899000FB
:100A9C002C7401F0E4F56BD20430040512111DC264
:010AAC000445
:010AAD002226
:10187800121D787FEE7E02120006121AB51207DFDB
:10188800121AB5E4FBFA79C8784212075512170FF5
:1018980012147D121D3A121DFF121E0A121D851206
:0D18A8001BDE12192E120DD612096C80EFF6
:10000600EF1FAC0670011E4C600A7D027CEFDCFE21
:04001600DDFC80ECA1
:01001A0022C3
:1015AE00E4F51F20B1137F14FE12000630B1FD7F4B
:1015BE00147E00120006751F0120B0147F147E00E9
:1015CE0012000630B0FD7F147E00120006751F0259
:1015DE0020B2147F147E0012000630B2FD7F147EFE
:1015EE0000120006751F0320B3147F147E00120034
:1015FE000630B3FD7F147E00120006751F04AF1F68
:01160E0022B9
:0C124B000A143F065B4F666D7D077F6F45
:10160F00EF1205C6162F01163302163703163B04C9
:10161F00163F05164706164F071657080000165DAA
:10162F00D2A4800ED2A48012D2A48016D2A4801A83
:10163F00C2A4D2A3D2A28016C2A4D2A3C2A2800EE9
:10164F00C2A4C2A3D2A28006C2A4C2A3C2A274140F
:10165F002DF8E6F5807F017E00120006E4F580226A
:101CF70053890F438910758BA4758DFFC28FD28EC0
:071D0700D2ABD2AFC2BB2238
:0C1257000156000157000158000155002D
:031E0A00021CF7C0
:031E0D008F5922C8
:03001B00021404C8
:06140400C0E0C0F0C0D002
:10140A00758BA4758DFF055AE55A75F0648485F0CD
:10141A005AE55A704A0557E557C3940A4005755765
:10142A0000D2040558E558C394324005755800D2D5
:10143A00060556E556C394644012755600D209054E
:10144A006AE56A94054005756A00D20BE56DB40138
:01145A000E83
:0E145B000555E555C3944B4005755500D20369
:0D146900E55AC395595004D2908002C290FC
:07147600D0D0D0F0D0E0322D
:0B1D9D00D288C289D2A8D2AFD2B822EF
:101D4E005389F0438901E4F58AF58CC28DC28C2249
:0B1DA800AD07AC068C8CAF058F8A22C3
:091DC700AF8CEFFEAD8AEDFF22A6
:061DF900EF24FF928C2292
:101CDF00E6FFE50E5407FE7401A8060822E50E1371
:081CEF001313541F2410F82206
:061DFF00121D4E021D9DA5
:0D1D5E00E50F6006E4F50F7F01227F0022F3
:0D1D6B00E50D6006E4F50D7F01227F0022EA
:031E1000AF0C22F2
:031E1300AF0B22F0
:03000300020AAE40
:100AAE00C0E0C0F0C083C082C0D075D000C000C00E
:100ABE0001C002C003C004C005C006C007E508702F
:100ACE000CFFFE121DA87F01121DF9803CE5086483
:100ADE0001703C120BC094A6E509942E4010E50A55
:100AEE00948EE50994325006750802020BA5D3E5E3
:100AFE000A948CE50994264010E50A9474E509944D
:100B0E002A5006750D01020B9D750801020BA5E515
:100B1E000864026003020BA5120BC09414E509943D
:100B2E0002401CE50A94FCE50994055012121CECD7
:100B3E00C000121CDF8002C333D8FCF45F8024D3C4
:100B4E00E50A9426E50994064020E50A940EE50987
:100B5E00940A5016121CECC000121CDF8002C33324
:100B6E00D8FC4FD000F6050E8006750E00750801F4
:100B7E00E50EC394204020750E00E511F4B5100F5C
:100B8E00E513F4B5120985100C85120B750F01E4EF
:100B9E00FF121DF9750800D007D006D005D004D07D
:100BAE0003D002D001D000D0D0D082D083D0F0D0EC
:100BBE00E032121DC78E098F0AE4FFFE121DA8D364
:030BCE00E50A2213
:091263000747130C1F173B0002A2
:10175C0075F00A120405FF3395E0FEEFC4F8540F40
:10176C00C868FFEEC454F048FE2275F00A12040556
:10177C00ADF0ED3395E0FCEF2DFDEE3CFC221217A5
:10178C00A5EFC4540F75F00AA4FEEF540F2E22F5EA
:09179C0082EF558224FF92B42271
:051E0500C2B5C2B622C7
:06166F008C238D24AB0763
:10167500D2B5E4FD74017E00A805088005C333CE0C
:1016850033CED8F9FFEB12179BD2B6C2B60DBD0803
:10169500E3E4FD74017E00A805088005C333CE335D
:1016A500CED8F9FFE5235EFEE5245F4E24FF92B414
:0A16B500D2B6C2B60DBD08DBC2B507
:0116BF002208
:0217A500AD078E
:1017A700E4F9430501D2B5FB74017E00A803088064
:1017B70005C333CE33CED8F9FFED12179BC2B6D28D
:1017C700B60BBB08E3E4FBD2B6C2B630B40D740166
:1017D700A803088002C333D8FC42010BBB08E8C248
:0517E700B5C2B4AF0122
:0117EC0022DA
:10138A00E4FDFC7F8E12166FE54712175CE54712E3
:10139A0017767F8C12166FE54812175CE54812170C
:1013AA00767F8812166FE54912175CE5491217769F
:1013BA007F8612166FE54A12175CE54A1217767F86
:1013CA008412166FE54B12175CE54B1217767F8273
:1013DA0012166FE54C12175CE54C1217767F8012D5
:1013EA00166FE54D12175CE54D1217767F8A1216B5
:0A13FA006F7D807C007F8E02166F6D
:101999007F8C12178AF5477F8812178AF5487F8648
:1019A90012178AF5497F8412178AF54A7F8212171E
:1019B9008AF54B7F8012178AF54C7F8A12178AF5B0
:0119C9004DD0
:0119CA0022FA
:101B58008F238C248D25121DD07FA0121AE1121D0F
:101B680091AF23121AE1121D91AF25121AE1121D2D
:041B780091021DF2C7
:021A2B008F2307
:101A2D00121DD07FA0121AE1121D91AF23121AE1DF
:101A3D00121D91121DD07FA1121AE1121D91121CBF
:0D1A4D00388F247F01121DB3121DF2AF244B
:011A5A002269
:0D1D7800121C1A7FCC121CC67F44021CC630
:101AB500121C1A7FCC121CC67FBE121CC6121C56E5
:101AC5008F26121C56EFFEE526FFFDAC06EC120331
:0B1AD5004BE4FBFA7980784112021FFD
:011AE00022E3
:101C1A00C2AFD2B7C2B77FF7DFFED2B77F20DFFEEF
:0D1C2A00A2B7E433FE7FF7DFFED2AFAF06B6
:011C3700228A
:101D0E00C2AFC2B77E04DEFEEF24FF92B77E18DEAE
:051D1E00FED2B7D2AFB8
:011D2300229D
:101C8F00C2AFC2B77F02DFFED2B77F02DFFEA2B7BD
:0B1C9F00E433FE7F18DFFED2AFAF067B
:011CAA002217
:021CC600AD0768
:101CC800E4FC7401A804088002C333D8FC5DFF1249
:061CD8001D0E0CBC08EC1F
:011CDE0022E3
:101C5600E4FDFC121C8FEF600D7401A804088002DD
:0C1C6600C333D8FC42050CBC08E9AF05F4
:011C7200224F
:091DD000D2A0D2A1C2A0C2A1223E
:071DF200C2A0D2A1D2A02281
:021AE100AD074F
:101AE300E4FB74807E00A803088006CEA2E713CE31
:101AF30013D8F8FFEDF582EF558224FF92A0D2A10F
:061B0300C2A10BBB08DCCF
:011B090022B9
:101C3800E4FFD2A0FED2A130A00D7480A8060880CF
:0D1C480002C313D8FC4207C2A10EBE08E87B
:011C5500226C
:0A1DB300EF24FF92A0D2A1C2A122EA
:0B1D9100D2A0D2A1A2A0E433FFC2A1A7
:011D9C002224
:1018B500CFCDCFCECCCE1204667C007D0A12046655
:1018C500ED2430FF121DEA1A227F0AEA24FFFDE407
:1018D50034FFFC7E0022C2A58F80D2A7121DD9C27B
:0D18E500A722CFCDCFCECCCE120466EF22CD
:081DD9007F027EEFDEFEDFFC5D
:011DE10022DF
:081DE200C2A61218DB021DD994
:081DEA00D2A61218DB021DD97C
:101D2400AE07BE0104ED148006BE0209ED243F4453
:061D340080FF121DE222F7
:101D3A007F38121DE27F0C121DE27F06121DE27F20
:041D4A0001021DE293
:0A1DBD00AC03121D24AF04021DEA5E
:061B7C008B338A34893529
:101B8200121D24E4FDAB33AA34A9358D827583007E
:0C1B9200120427FF6006121DEA0D80E916
:011B9E002224
:081B31008E6E8F6F8C708D71B8
:101B39007F017E00E4FBEBC39571E5706480F87466
:0E1B49008098500AAC6EAD6F1204540B80E809
:011B5700226B
:041BBF008A5D8B5E52
:101BC300121D24AA5FEAD39400400F1218CE121BF1
:0A1BD30031AC5DAD5E1218B580EB79
:011BDD0022E5
:1018F200121D24C3EA64809480400B7F2B121DEAE0
:101902008A538B54800E7F2D121DEAC3E49BF5543B
:10191200E49AF553AA52EAD39400400F1218CE1259
:0B1922001B31AC53AD541218B580EB24
:01192D002297
:041964008A628B63A5
:10196800121D24AA64EAD3940040257F101218D0CF
:10197800121B31AC62AD631218E7540FFEC3940A10
:10198800EE5004243080022437FF121DEA1A80D555
:01199800222C
:041A88008A678B6876
:101A8C00121D24AA69EAD39400401DEA24FFFDE448
:101A9C0034FFFC7F027E00121B31AC67AD6812185C
:081AAC00E754011218C680DDA9
:011AB400220F
:10001E000203F0E86480F8E933E83360110460F01D
:10002E00ED33EC337009E8FCE9FDEAFEEBFF220448
:10003E0060DED3EB9FEA9EE99DE8C2E78CF0C2F743
:10004E0095F0400CE8CCF8E9CDF9EACEFAEBCFFB0F
:10005E001203BB85D0F05804700320D5B3E80470AA
:10006E00075002B2D50203FA92D5EC0460F7E4CC45
:10007E00C0E0C398F8603B94186008400DD0E0FBD8
:10008E000203D2E4FBFAC9FC8028E830E406E4C996
:10009E00FBE4CAFCE830E305E4C9CACBFCE854072C
:1000AE006010F8C3E913F9EA13FAEB13FBEC13FC37
:1000BE00D8F130F52FC3E49CFCEF9BFFEE9AFEEDDA
:1000CE0099FDD0E0FBEF4E4D4C701222DB03020384
:1000DE00F7EC2CFCEF33FFEE33FEED33FDED30E7A6
:1000EE00EB0203D2EF2BFFEE3AFEED39FDD0E0FB33
:1000FE0050130BBB00030203FAED13FDEE13FEEFDC
:08010E0013FFEC13FC0203D205
:10011600EC4D6011E8497017ED33EC3304600DE4E3
:10012600FCFFFEFD22E933E8330470F80203F01207
:1001360003BB58046009E4CC248150062850090208
:1001460003FA2840030203F7C0E0EB4A7044B98083
:1001560006D0E0FB0203E6EF4E701CBD8008EBFF05
:10016600EAFEE9FD80EBE98DF0A4FEE5F00201FF71
:10017600E9CDF9EAFEEBFFEF89F0A4FCE5F0CE89C4
:10018600F0A42EFFE435F0CD89F0A42DFEE435F081
:100196008067EF4E7005BD80D780C3EF8BF0A4ACAF
:1001A600F0EE8BF0A42CFCE435F0F8EF8AF0A42CEA
:1001B600E5F038FCE433CB8DF0A42CFCE5F03BF8FD
:1001C600EE8AF0A42CFCE5F038F8E433CF89F0A4ED
:1001D6002CFCE5F038CF3400CE89F0A42FFFE5F0F3
:1001E6003EFEE433C98DF0A42EFEE5F039CD8AF04B
:1001F600A42FFFE5F03EFEE43DFD33D0E0FB5007C3
:100206000BBB000F0203FAEC2CFCEF33FFEE33FEC0
:06021600ED33FD0203D2EE
:10021C000203FAEC5D046005E8590470030203F074
:10022C001203BB580460F6EC4860F2EC7004FDFE5F
:10023C00FF22C860DB2481C85009C39860025006B5
:10024C000203F79850CAF582E9294B4A7005AB8234
:10025C000203E675F0007C1A7880C3EF9BEE9AEDF2
:10026C0099400DC3EF9BFFEE9AFEED99FDE842F02D
:10027C00DC23ACF0D0E0FFD0E0FED0E0FDAB822080
:10028C00E7101BEB60BAEC2CFCEF33FFEE33FEED0A
:10029C0033FD0203D2E803F830E705C0F075F00037
:1002AC00EF2FFFEE33FEED33FD40B830E7C280AAEE
:1002BC0074F8CC6480CCC86480C8F58204604FC3E9
:1002CC00EB9FF5F0EA9E42F0E99D42F0E89C45F088
:1002DC00603C501DE5825FFFE582D313CB5BCBF412
:1002EC002B5582FB50280ABA002409B9002008803B
:1002FC001DE5825BFBE582D313CF5FCFF4C3132FD5
:10030C005582FF50090EBE00050DBD00010CC3EB5C
:10031C009FF5F0EA9E42F0E99D42F0E89C45F060C2
:09032C0007CC4820E701B3EC22E4
:10033500ED33EC33600A047003BD8004ECB2E7FCD6
:010345002295
:1003460075F020800E75F010800575F0087D007E32
:10035600007F003392D530D50312054DEC334010A3
:10036600EF33FFEE33FEED33FDEC33FCD5F0ED223B
:0E037600E5F0247EA2D513CC92E7CDCEFF2277
:10038400EDD2E7CD33EC3392D524814006E4FFFE71
:10039400FDFC22FCE4CFCECDCC24E0501174FF80D0
:1003A400EDC3CC13CCCD13CDCE13CECF13CF04706D
:0703B400F030D5DE02054D1B
:1003BB00E9D2E7C933E833F892D5EDD2E7CD33EC88
:0703CB0033FC5002B2D52201
:1003D200EC30E7100FBF000C0EBE00080DBD00048C
:1003E2000BEB6014A2D5EB13FCED92E7FD2274FF38
:1003F200FCFDFEFF22E480F8A2D574FF13FC7D8091
:03040200E480EFA4
:030000000212FEEB
:0C12FE00787FE4F6D8FD7581710213457D
:10040500C2D530F707B2D563F0FF05F030E70CB27F
:10041500D5F4048463F0FF05F080018430D502F43F
:020425000422AF
:10042700BB010CE58229F582E5833AF583E022508A
:1004370006E92582F8E622BBFE06E92582F8E222D4
:0D044700E58229F582E5833AF583E49322EE
:10045400EF8DF0A4A8F0CF8CF0A428CE8DF0A42EBC
:02046400FE2276
:10046600BC000BBE0029EF8DF084FFADF022E4CC7A
:10047600F875F008EF2FFFEE33FEEC33FCEE9DEC43
:10048600984005FCEE9DFE0FD5F0E9E4CEFD22ED89
:10049600F8F5F0EE8420D21CFEADF075F008EF2FD3
:1004A600FFED33FD4007985006D5F0F222C398FDC4
:0504B6000FD5F0EA2261
:1004BB00C2D5EC30E709B2D5E4C39DFDE49CFCEE5C
:1004CB0030E715B2D5E4C39FFFE49EFE120466C36A
:1004DB00E49DFDE49CFC800312046630D507C3E465
:0604EB009FFFE49EFE22CB
:0D04F100EF2BFFEE3AFEED39FDEC38FC225A
:1004FE00E88FF0A4CC8BF0A42CFCE98EF0A42CFC9D
:10050E008AF0EDA42CFCEA8EF0A4CDA8F08BF0A41A
:10051E002DCC3825F0FDE98FF0A42CCD35F0FCEB79
:10052E008EF0A4FEA9F0EB8FF0A4CFC5F02ECD393E
:0F053E00FEE43CFCEAA42DCE35F0FDE43CFC22AB
:10183400C2D5E830E70FB2D5E4C39BFBE49AFAE4DF
:1018440099F9E498F8EC30E717B2D512186A120641
:1018540028E4C39BFBE49AFAE499F9E498F880033A
:1018640012062830D50DE4C39FFFE49EFEE49DFDDF
:04187400E49CFC22D2
:0E054D00C3E49FFFE49EFEE49DFDE49CFC22BF
:10055B00EB9FF5F0EA9E42F0E99D42F0EC6480C817
:06056B0064809845F022B7
:0C057100E0FCA3E0FDA3E0FEA3E0FF22FD
:0C057D00E0F8A3E0F9A3E0FAA3E0FB2201
:0C058900ECF0A3EDF0A3EEF0A3EFF022E5
:10059500A8828583F0D083D0821205AC1205AC12F7
:1005A50005AC1205ACE473E493A3C583C5F0C5831C
:1005B500C8C582C8F0A3C583C5F0C583C8C582C8B0
:0105C5002213
:1005C600D083D082F8E4937012740193700DA3A3C4
:1005D60093F8740193F5828883E4737402936860D8
:0605E600EFA3A3A380DFD8
:10130A00021878E493A3F8E493A34003F68001F269
:10131A0008DFF48029E493A3F85407240CC8C333E4
:10132A00C4540F4420C8834004F456800146F6DFB3
:10133A00E4800B01020408102040809011CCE47E66
:10134A00019360BCA3FF543F30E509541FFEE493A8
:10135A00A360010ECF54C025E060A840B8E493A36F
:10136A00FAE493A3F8E493A3C8C582C8CAC583CA9A
:10137A00F0A3C8C582C8CAC583CADFE9DEE780BE52
:01126C000081
:1005EC0075F008758200EF2FFFEE33FECD33CDCCC6
:1005FC0033CCC58233C5829BED9AEC99E582984049
:10060C000CF582EE9BFEED9AFDEC99FC0FD5F0D625
:10061C00E4CEFBE4CDFAE4CCF9A88222B800C1B94F
:10062C000059BA002DEC8BF084CFCECDFCE5F0CB8D
:10063C00F97818EF2FFFEE33FEED33FDEC33FCEBC6
:10064C0033FB10D703994004EB99FB0FD8E5E4F981
:10065C00FA227818EF2FFFEE33FEED33FDEC33FC6E
:10066C00C933C910D7059BE99A4007EC9BFCE99A62
:10067C00F90FD8E0E4C9FAE4CCFB2275F010EF2FA7
:10068C00FFEE33FEED33FDCC33CCC833C810D707A7
:10069C009BEC9AE899400AED9BFDEC9AFCE899F8E2
:0E06AC000FD5F0DAE4CDFBE4CCFAE4C8F92275
:00000001FF
