:100F7E0048656C6C6F2C576F726C6421202020209A
:100F8E00004C434431363032205465737420202097
:100F9E002000323025303262752D25303262752DAB
:100FAE00253032627520202020202000253032622C
:100FBE00753A25303262753A253032627520202519
:100FCE00642E25644320003230253032752D2530B5
:100FDE0032752D253032752020202020200025301E
:100FEE0032753A253032753A253032750054656DBA
:100FFE00703A20252E326620430044533138423257
:10100E003020546573743A002020202020202020A8
:10101E00202020202020202000130C1F173B000230
:10102E0000000000000000000000000000000000B2
:10103E0000000000000000000000000000000000A2
:10126500017200C10CC10DC10EC10FC10B0175008A
:10127500017400017300470002130C1F173B0002A5
:1012850050001200000000000000000000000000F7
:1012950000000050002200000000000000000000D7
:1012A5000000000000004200090014420000000098
:0412B500C109C10AA0
:10197700E4F522E4FDFCAF2212187E7F057E0012FB
:0B19870000060522E522C3940740E89B
:011992002232
:1019AF007BFF7A0F797E7D017F011218A27BFF7A70
:0A19BF000F798F7D017F020218A24C
:0C1A7F00121A58EF6005121AFE8F732235
:1018C500E573B4460EE5740475F0038485F074E49D
:0E18D500F57322E573B44505E4F574F573224E
:10162500EF120748165708164E0C164B161651188A
:10163500165A1C16604216664A166352165D5A16ED
:10164500545E000016697F00227F01227F02227FFF
:1016550003227F04227F05227F06227F07227F083F
:07166500227F09227FFF2212
:10147900121AF0E4F522AF2212177B74182522F80C
:0F148900A6070522E522C3940740EBE51870176C
:10149800F522E52290102793FF74182522F8A60755
:0714A8000522E522B407EB69
:1014AF00120BDDE4F52274182522F8E6FD3395E0E2
:1014BF00FCAF2212187E7F057E001200060522E582
:0614CF0022C3940740E077
:0114D50022F4
:1013B10012104E7527FF75280F7529A085182A85EB
:1013C100192B851A2C7B017A0079121207CA7B012D
:1013D1007A0079127D017F011218A27527FF752805
:1013E1000F7529BA851B2A851C2B851D2C90000998
:1013F100E0F52DA3E0F52E900000E0F52FA3E0F538
:10140100307B017A0079221207CA7B017A007922A6
:071411007D017F020218A219
:10174A00E51DFD3395E0FC7F0512187EE51D700C42
:10175A00E51CFD3395E0FC7F0412187EE51C701031
:10176A00E51D700CE51BFD3395E0FC7F0312187E26
:01177A00224C
:061167008B248A25892675
:10116D00EFD3941040027F10900042EFF0E4A3F013
:10117D00A3F0FEEEC39F5046E52645254524603E6F
:10118D00AB24AA25A9268E8275830012064E75F012
:10119D000A84FDEE25E02432F582E43400F583ED7A
:1011AD00F08E8275830012064E75F00A84EE25E0EE
:1011BD002433F582E43400F583E5F0F0801CEE2550
:1011CD00E02432F582E43400F583E4F0EE25E024EA
:0E11DD0033F582E43400F583E4F00EBE109585
:0111EB0022E1
:1017AB00900042E0FD6027900044E07021900043E0
:1017BB00E0FE2432F582E43400F583EFF0EE2401F1
:0F17CB00FFE433FE7C0012069F900043EDF022F6
:100EA300784D7C007D017BFF7A10792E7E007F10C8
:100EB3001205ED785D7C007D017BFF7A10793E7E23
:100EC300007F101205ED20092E12104EE4F5227456
:100ED300182522F8E6FF74462522F582E43400F54E
:100EE30083EFF00522E522B407E57B017A0079461A
:100EF3007F0E121167D2097527FF75280F7529D543
:100F0300900032E0F52AA3E0F52BA3E0F52C7B015A
:100F13007A00794D1207CA7B017A00794D7D017FF2
:100F2300011218A27527FF75280F7529EC9000355B
:100F3300E0F52AA3E0F52BA3E0F52C7B017A0079F9
:100F43005D1207CA7B017A00795D7D017F02121869
:100F5300A2900044E06023E4F522740B2522F5827D
:100F6300E43400F583E0FF74182522F8A607052270
:0A0F7300E522B407E5120BDDC20908
:010F7D002251
:10134800E5747064E575700E300F5DD2B5121A72CF
:0F135800C20F75750122E5756401704C300B49A9
:10136700D2B51217DA8F258E248D238C22E4FFFE47
:101377007DC87C42AB25AA24A923A82212001E12ED
:1013870002027C007D641206F4900000ECF0A3EDED
:10139700F0AF25AE24AD23AC22120202900009EE75
:0913A700F0A3EFF0C20BE4F575B0
:0113B000221A
:10182F00E5747023E573B44405B20AE4F573300A26
:10183F0003020EA3300C051213B1C20C300E0512A9
:07184F00174AC20E121348F4
:01185600226F
:011B010022C1
:011B020022C0
:10158900121A727FEE7E021200061217DA7527FF11
:1015990075280F7529FB8F2D8E2C8D2B8C2A7B009E
:1015A9007A0079081207CA7BFF7A1079087D017FD2
:1015B900011218A27BFF7A1079167D017F02121899
:0E15C900A27B007A0079087D017F020218A241
:10153200121977121A727FEE7E021200061217DA61
:10154200120202900009EEF0A3EFF01217DAE4FBA8
:10155200FA79C8784212001E1202027C007D6412DF
:1015620006F4900000ECF0A3EDF0121479121A25A3
:10157200121AEA121AF5121A7F1218C512182F122D
:071582001B01121B0280EFA8
:10000600EF1FAC0670011E4C600A7D027CEFDCFE21
:04001600DDFC80ECA1
:01001A0022C3
:10141800E4F51F20B1137F14FE12000630B1FD7FE2
:10142800147E00120006751F0120B0147F147E0080
:1014380012000630B0FD7F147E00120006751F02F0
:1014480020B2147F147E0012000630B2FD7F147E95
:1014580000120006751F0320B3147F147E001200CB
:101468000630B3FD7F147E00120006751F04AF1FFF
:011478002251
:0C12B9000A4C3F065B4F666D7D077F6F9F
:1012DB00EF14B4080050549012F075F003A4C583BA
:1012EB0025F0C5837302130802130C0213100213AB
:1012FB0014021318021320021328021330D2A480F5
:10130B000ED2A48012D2A48016D2A4801AC2A4D268
:10131B00A3D2A28016C2A4D2A3C2A2800EC2A4C220
:10132B00A3D2A28006C2A4C2A3C2A2744C2DF8E61B
:0D133B00F5807F017E00120006E4F580229F
:1019E20053890F438910758BA4758DFFC28FD28ED8
:0719F200D2ABD2AFC2BB2251
:0C12C500015E00015F00016000015D009F
:031AF5000219E2F1
:031AF8008F6122D9
:03001B000211ECE3
:0611EC00C0E0C0F0C0D01D
:1011F200758BA4758DFF0562E56275F0648485F0D8
:1012020062E562704A055FE55FC3940A4005755F57
:1012120000D20C0560E560C394324005756000D2CF
:101222000D055EE55EC394644012755E00D20E0544
:1012320072E57294054005757200D20FE575B4012E
:011242000E9D
:0E124300055DE55DC3944B4005755D00D20B63
:0D125100E562C395615004D2908002C29006
:07125E00D0D0D0F0D0E03247
:0B1A9700D288C289D2A8D2AFD2B822F8
:101A39005389F0438901E4F58AF58CC28DC28C2261
:0B1AA200AD07AC068C8CAF058F8A22CC
:091ACB00AF8CEFFEAD8AEDFF22A5
:061AE400EF24FF928C22AA
:061AEA00121A39021A97DE
:0D1A5800E5476006E4F5477F01227F00228C
:0D1A6500E5456006E4F5457F01227F002283
:031AFB00AF4422D3
:031AFE00AF4322D1
:03000300020D5794
:100D5700C0E0C0F0C083C082C0D075D000C000C062
:100D670001C002C003C004C005C006C007E540704B
:100D77000CFFFE121AA27F01121AE48049E54064B3
:100D8700017049121ACB8E418F42E4FFFE121AA25C
:100D9700D3E54294A6E541942E4010E542948EE5B2
:100DA7004194325006754002020E88D3E542948C76
:100DB700E54194264010E5429474E541942A500693
:100DC700754501020E80754001020E88E5406402F8
:100DD7006003020E88121ACB8E418F42E4FFFE1287
:100DE7001AA2D3E5429414E5419402402CE54294BB
:100DF700FCE54194055022E546131313541F24487C
:100E0700F8C000E6FFE5465407FE7401A80608800F
:100E170002C333D8FCF45F8034D3E5429426E5411E
:100E270094064030E542940EE541940A5026E54683
:100E3700131313541F2448F8C000E6FFE546540770
:100E4700FE7401A806088002C333D8FC4FD000F611
:100E570005468006754600754001E546C394204067
:100E670020754600E549F4B5480FE54BF4B54A0946
:100E7700854844854A43754701E4FF121AE47540E3
:100E870000D007D006D005D004D003D002D001D0BF
:0C0E970000D0D0D082D083D0F0D0E03268
:0912D1000718130C1F173B000263
:051AF000C2B5C2B622E0
:0514D6002DFDEE3CFCC1
:0614DB008C248D25AB07F7
:1014E100D2B5E4FD74017E00A805088005C333CEA2
:1014F10033CED8F9FFEBF582EF558224FF92B4D2B7
:10150100B6C2B60DBD08DDE4FD74017E00A8050874
:101511008005C333CE33CED8F9FFE5245EFEE52541
:101521005F4E24FF92B4D2B6C2B60DBD08DBC2B580
:011531002297
:0215D700AD075E
:1015D900E4F9430501D2B5FB74017E00A803088034
:1015E90005C333CE33CED8F9FFEDF582EF5582240A
:1015F900FF92B4C2B6D2B60BBB08DDE4FBD2B6C2C9
:10160900B630B40D7401A803088002C333D8FC4274
:0B161900010BBB08E8C2B5C2B4AF0172
:0116240022A3
:100BDD00E4FDFC7F8E1214DBE51875F00A12061386
:100BED00FF3395E0FEEFC4F8540FC868FFEEC45410
:100BFD00F048FEE51875F00A120613ADF0ED3395C9
:100C0D00E0FCEF7F8C1214D6E51975F00A1206136D
:100C1D00FF3395E0FEEFC4F8540FC868FFEEC454DF
:100C2D00F048FEE51975F00A120613ADF0ED339597
:100C3D00E0FCEF7F881214D6E51A75F00A12061340
:100C4D00FF3395E0FEEFC4F8540FC868FFEEC454AF
:100C5D00F048FEE51A75F00A120613ADF0ED339566
:100C6D00E0FCEF2DFDEE3CFC7F861214DBE51B75E1
:100C7D00F00A120613FF3395E0FEEFC4F8540FC8C7
:100C8D0068FFEEC454F048FEE51B75F00A1206131A
:100C9D00ADF0ED3395E0FCEF2DFDEE3CFC7F8412C5
:100CAD0014DBE51C75F00A120613FF3395E0FEEF19
:100CBD00C4F8540FC868FFEEC454F048FEE51C7527
:100CCD00F00A120613ADF0ED3395E0FCEF2DFDEEBD
:100CDD003CFC7F821214DBE51D75F00A120613FF32
:100CED003395E0FEEFC4F8540FC868FFEEC454F01E
:100CFD0048FEE51D75F00A120613ADF0ED3395E0D3
:100D0D00FCEF2DFDEE3CFC7F801214DBE51E75F033
:100D1D000A120613FF3395E0FEEFC4F8540FC868AE
:100D2D00FFEEC454F048FEE51E75F00A120613AD31
:100D3D00F0ED3395E0FCEF2DFDEE3CFC7F8A1214B7
:0A0D4D00DB7D807C007F8E0214DB4A
:10104E007F8C1215D7EFC4540F75F00AA4FEEF541F
:10105E000F2EF5187F881215D7EFC4540F75F00AAE
:10106E00A4FEEF540F2EF5197F861215D7EFC45438
:10107E000F75F00AA4FEEF540F2EF51A7F84121589
:10108E00D7EFC4540F75F00AA4FEEF540F2EF51BC4
:10109E007F821215D7EFC4540F75F00AA4FEEF54D9
:1010AE000F2EF51C7F801215D7EFC4540F75F00A62
:1010BE00A4FEEF540F2EF51D7F8A1215D7EFC454E0
:0C10CE000F75F00AA4FEEF540F2EF51E63
:0110DA0022F3
:10187E008F238C248D25121AD47FA0121806121ACB
:10188E008BAF23121806121A8BAF25121806121AD6
:04189E008B021ADDC2
:02177B008F23BA
:10177D00121AD47FA0121806121A8BAF2312180654
:10178D00121A8B121AD47FA1121806121A8B121963
:0D179D00018F247F01121AAD121ADDAF2456
:0117AA00221C
:0D1A72001218E37FCC1219C97F440219C974
:1017DA001218E37FCC1219C97FBE1219C912193D1A
:1017EA008F2612193DEFFEE526FFFDAC06EC12012D
:0B17FA00C9E4FBFA7980784112012756
:0118050022C0
:1018E300C2AFD2B7C2B77FF7DFFED2B77F20DFFE2A
:0D18F300A2B7E433FE7FF7DFFED2AFAF06F1
:0119000022C4
:1019F900C2AFC2B77E04DEFEEF24FF92B77E18DEC7
:051A0900FED2B7D2AFD0
:011A0E0022B5
:10199300C2AFC2B77F02DFFED2B77F02DFFEA2B7BC
:0B19A300E433FE7F18DFFED2AFAF067A
:0119AE002216
:0219C900AD0768
:1019CB00E4FC7401A804088002C333D8FC5DFF1249
:0619DB0019F90CBC08EC38
:0119E10022E3
:10193D00E4FDFC121993EF600D7401A804088002F8
:0C194D00C333D8FC42050CBC08E9AF0510
:01195900226B
:091AD400D2A0D2A1C2A0C2A1223D
:071ADD00C2A0D2A1D2A02299
:02180600AD072C
:10180800E4FB74807E00A803088006CEA2E713CE0E
:1018180013D8F8FFEDF582EF558224FF92A0D2A1EC
:06182800C2A10BBB08DCAD
:01182E002297
:10190100E4FFD2A0FED2A130A00D7480A806088009
:0D19110002C313D8FC4207C2A10EBE08E8B5
:01191E0022A6
:0A1AAD00EF24FF92A0D2A1C2A122F3
:0B1A8B00D2A0D2A1A2A0E433FFC2A1B0
:011A9600222D
:061A4900C2A58F80D2A7A8
:081A4F007F027EEFDEFEDFFCEA
:011A5700226C
:0A1AB700C2A6121A49C2A7021A4F74
:10191F00CFCDCFCECCCE12069F7C007D0A12069F74
:04192F00ED2430FF74
:0A193300D2A6121A49C2A7021A4FE9
:101A0F00AE07BE0104ED148006BE0209ED243F446B
:061A1F0080FF121AB7223D
:101A25007F38121AB77F0C121AB77F06121AB77FC2
:041A350001021AB7D9
:0A1AC100AC03121A0FAF0402193330
:0618A2008B248A25892633
:1018A800121A0FE4FDAB24AA25A9268D82758300A0
:0C18B80012064EFF60061219330D80E985
:0118C4002201
:0C1717007F0AEA24FFFDE434FFFC7E00A2
:081723008E768F778C788D79AA
:10172B007F017E00E4FBEBC39579E5786480F87468
:0E173B008098500AAC76AD7712068D0B80E8D0
:01174900227D
:04195A008A658B66A9
:10195E00121A0FAA67EAD39400400D121717AC653E
:08196E00AD6612191F1A80ED8D
:01197600224E
:10166C00121A0FC3EA64809480400B7F2B1219333B
:10167C008A5B8B5C800E7F2D121933C3E49BF55C67
:10168C00E49AF55BAA5AEAD39400400D121717ACF2
:09169C005BAD5C12191F1A80ED10
:0116A5002222
:0416A6008A6A8B6B56
:1016AA00121A0FAA6CEAD3940040297F1012171954
:1016BA00AC6AAD6BCFCDCFCECCCE12069FEF540F16
:1016CA00FEC3940AEE5004243080022437FF121914
:0416DA00331A80D16E
:0116DE0022E9
:0416DF008A6F8B7013
:1016E300121A0FAA71EAD394004028EA24FFFDE4FA
:1016F30034FFFC7F027E00121723AC6FAD70CFCD99
:10170300CFCECCCE12069FEF54012430FF121933F3
:031713001A80D267
:0117160022B0
:10001E00EC4D6011E8497017ED33EC3304600DE4DC
:10002E00FCFFFEFD22E933E8330470F802026E1283
:10003E00023958046009E4CC248150062850090284
:10004E000278284003020275C0E0EB4A7044B98082
:10005E0006D0E0FB020264EF4E701CBD8008EBFF81
:10006E00EAFEE9FD80EBE98DF0A4FEE5F002010762
:10007E00E9CDF9EAFEEBFFEF89F0A4FCE5F0CE89BD
:10008E00F0A42EFFE435F0CD89F0A42DFEE435F07A
:10009E008067EF4E7005BD80D780C3EF8BF0A4ACA8
:1000AE00F0EE8BF0A42CFCE435F0F8EF8AF0A42CE3
:1000BE00E5F038FCE433CB8DF0A42CFCE5F03BF8F6
:1000CE00EE8AF0A42CFCE5F038F8E433CF89F0A4E6
:1000DE002CFCE5F038CF3400CE89F0A42FFFE5F0EC
:1000EE003EFEE433C98DF0A42EFEE5F039CD8AF044
:1000FE00A42FFFE5F03EFEE43DFD33D0E0FB5007BC
:10010E000BBB000F020278EC2CFCEF33FFEE33FE3C
:06011E00ED33FD0202506A
:10012400020278EC5D046005E85904700302026E73
:10013400120239580460F6EC4860F2EC7004FDFEDB
:10014400FF22C860DB2481C85009C39860025006AE
:100154000202759850CAF582E9294B4A7005AB82B0
:1001640002026475F0007C1A7880C3EF9BEE9AED6E
:1001740099400DC3EF9BFFEE9AFEED99FDE842F026
:10018400DC23ACF0D0E0FFD0E0FED0E0FDAB822079
:10019400E7101BEB60BAEC2CFCEF33FFEE33FEED03
:1001A40033FD020250E803F830E705C0F075F000B3
:1001B400EF2FFFEE33FEED33FD40B830E7C280AAE7
:1001C40075F020800E75F010800575F0087D007EB6
:1001D400007F003392D530D50312072AEC33401048
:1001E400EF33FFEE33FEED33FDEC33FCD5F0ED22BF
:0E01F400E5F0247EA2D513CC92E7CDCEFF22FB
:10020200EDD2E7CD33EC3392D524814006E4FFFEF4
:10021200FDFC22FCE4CFCECDCC24E0501174FF8053
:10022200EDC3CC13CCCD13CDCE13CECF13CF0470F0
:07023200F030D5DE02072ABF
:10076E00E53B2427F8E6053B22782430070278275C
:10077E00E475F0011207380206352000EB7F2ED209
:10078E00008018EF540F2490D43440D4FF30040B63
:10079E00EF24BFB41A0050032461FFE53C6002153C
:1007AE003C053FE53F7002053E30070D7824E475A9
:1007BE00F001120738EF02067B0218577403D207B6
:1007CE008003E4C207F53B8B248A258926E4F53C99
:1007DE00F53EF53FE53C60077F201207A980F575D1
:1007EE003DFFC201C200C202C203C205C206C20858
:1007FE00120777FF700D3007057F001207BAAF3F63
:10080E00AE3E22B4255FC2D5C204120777FF24D0B4
:10081E00B40A00501A75F00A783C30D50508B6FFB8
:10082E000106C6A426F620D5047002D20380D92470
:10083E00CFB41A00EF5004C2E5D204020AA7D201C7
:10084E0080C6D20080C0D20280BCD2D580BAD2057A
:10085E0080B47F201207A92002077401B53C004026
:10086E00F112076EFF1207A90207E2D208D2068024
:10087E009512076EFB12076EFA12076EF94A4B704D
:10088E0006799E7A0B7BFF20022EE53C602A7E00C5
:10089E008E8275830012064E60060EEE653D70F078
:1008AE00C2D5EBC0E0EAC0E0E9C0E0EE120B07D023
:1008BE00E0F9D0E0FAD0E0FB120635FF60AAEBC0FB
:1008CE00E0EAC0E0E9C0E01207A9D0E02401F9D0C7
:1008DE00E03400FAD0E0FBE53D0460DCD53DD98084
:1008EE0087D20280A2120AEA60F7E53D7001041277
:1008FE000283A93D600DE53D600914F53D120B9193
:10090E00EF60F3EA30E702F404C3995077EAF42576
:10091E003D0430E701E404F53D800D120AEA60C1A2
:10092E00EA053D253D120283EA783AF630E701E406
:10093E00253D04D53D0420050114120B07E4C0E04B
:10094E00120B91783AE6601320E70714F61207911E
:10095E00802204F6D0E014C0E07F00120791E53D3E
:10096E006007120788153D800B300503120788D0EB
:10097E00E00207E2D0E00480C5120AEA60A0E53D7D
:10098E0004120283783AEAF6E53D2005026001047E
:05099E002404120B0708
:1009A30074FF04C0E0120B91120791E53D2005028C
:1009B3006003120788D0E0B53DE87F4512079B78B6
:1009C3003AE67F2B30E7047F2DF404C0E01207A939
:1009D300D0E075F00A84C0F0120792D0E0120792BB
:1009E3000207E2791080027908C206C2088008D2A1
:1009F300D5790A8004790AC2D5E53D047002F53D34
:100A0300E4FAFDFEFF12076EFC7B082001131207B8
:100A13006EFD7B1030000A12076EFE12076EFF7B1D
:100A230020EC3382D592D55013C3E43000069FFFE8
:100A3300E49EFEE42001039DFDE49CFCE4CBF8C2AC
:100A430001EC700CCFCECDCCE824F8F870F380170E
:100A5300C3EF33FFEE33FEED33FDEC33FCEB33FB3F
:100A6300994002FB0FD8E9EB300105F8D0E0C44808
:100A7300B201C0E00AEC4D4E4F78207B0070C2EA11
:100A8300B53D0040BCC0E0120B09D0F0D0E020011E
:100A930004C4C0E0C4B201C0F0120792D0F0D5F094
:100AA300EB0207E2120748087F5309E65808504C47
:100AB300084C4209EA4F09F24409F249086543091F
:100AC300F85509294609874508F3470BBE500854D2
:100AD3002D08582E087B2B085C230879200BA72AA6
:100AE30008144800000873E53DB4FF03753D061282
:100AF300076EFC12076EFD12076EFE12076EFF787B
:100B0300330202B2790AA2D5200314300509B910C1
:100B1300020404B9080104A2D520060250010420EE
:100B230002689202B53C005034C0E07F20300319C4
:100B33007F30A20272067205500F120B60C202C20E
:100B430006C205C2087F30800F300503E9C0E012FA
:100B530007A9300503D0E0F9D0E0B53CCC30051748
:100B63007F30B9100C1207A97F583004077F7880B3
:100B730003B908031207A93002057F2D0207A97FD5
:100B8300202008F87F2B2006F322920280CF7F00DB
:100B9300B4070050052433F8E6FF22286E756C6C09
:100BA3002900D20112076E3001F8C201783C30D51A
:100BB3000108F60208142D5043495812076E240306
:100BC300B405004001E4900BB99312079A743A12EA
:0A0BD300079AD203753C040209E6FC
:10023900E9D2E7C933E833F892D5EDD2E7CD33EC0B
:0702490033FC5002B2D52284
:10025000EC30E7100FBF000C0EBE00080DBD00040F
:100260000BEB6014A2D5EB13FCED92E7FD2274FFBB
:10027000FCFDFEFF22E480F8A2D574FF13FC7D8014
:03028000E480EF28
:10028300F920E72824F950037907E4F42402FB1842
:10029300DBFDE624FB5014E9600DE4F618E604F6F2
:0F02A300B40A08E4F6D9F57401F60A22C2D5228E
:1002B200ED33EC3392D5FA602AB4FF33EDC2E77B1B
:1002C200FF60067A0279D7E4227A0279E020D50427
:1002D2007A0279DB224E614E002B494E46002D49AF
:1002E2004E4600E47A08F608DAFC7B00740722E83E
:1002F200C0E0ECC0E0EDC0E0EEC0E0EFC0E0EA75C7
:10030200F010A4CAABF075F04DA42BFBE435F0FC61
:10031200EA2410FAEB34C5FBEC34D9FCEDC2E7FF5A
:1003220075F056A4F42411C5F0F434C58FF0A42A54
:10033200E5F03BE43CF620E7141204DDD0E0FFD008
:10034200E0FED0E0FDD0E0FC1201278014F404129C
:1003520004DDD0E0FFD0E0FED0E0FDD0E0FC1200F2
:100362001ED0E0F8E6FAEDD2E7CD33EC332482FB7F
:10037200E4C3CF33CFCE33CECD33CD33DBF37B07E4
:1003820075F00A846004F6081B0AE5F0F6088FF09F
:10039200740AA4FFACF08EF0740AA42CFEACF050E8
:1003A200010C8DF0740AA42CFDE435F0F608DBDEB6
:0303B200740722AB
:1003B50002026EE86480F8E933E83360110460F006
:1003C500ED33EC337009E8FCE9FDEAFEEBFF2204AE
:1003D50060DED3EB9FEA9EE99DE8C2E78CF0C2F7A9
:1003E50095F0400CE8CCF8E9CDF9EACEFAEBCFFB75
:1003F50012023985D0F05804700320D5B3E8047093
:10040500075002B2D502027892D5EC0460F7E4CC2D
:10041500C0E0C398F8603B94186008400DD0E0FB3D
:10042500020250E4FBFAC9FC8028E830E406E4C97E
:10043500FBE4CAFCE830E305E4C9CACBFCE8540791
:100445006010F8C3E913F9EA13FAEB13FBEC13FC9C
:10045500D8F130F52FC3E49CFCEF9BFFEE9AFEED3F
:1004650099FDD0E0FBEF4E4D4C701222DB030202EA
:1004750075EC2CFCEF33FFEE33FEED33FDED30E78D
:10048500EB020250EF2BFFEE3AFEED39FDD0E0FB1B
:1004950050130BBB0003020278ED13FDEE13FEEFC4
:0804A50013FFEC13FC020250EE
:1004AD003F8000004120000042C80000447A000057
:1004BD00461C400047C35000497424004B189680D9
:1004CD004CBEBC205A0E1BCA6753C21C749DC5AED0
:1004DD00FB60065407601C232312050BEB54386098
:1004ED00091204F712050612001EECF8EDF9EEFAEA
:1004FD00EFCB22EB12050680F1543803241C900437
:10050D00ADFE93FC0EEE93FD0EEE930ECE93FF22F9
:030000000210DB10
:0C10DB00787FE4F6D8FD758179021122BF
:10051D00E709F608DFFA8046E709F208DFFA803EC0
:10052D0088828C83E709F0A3DFFA8032E309F608AD
:10053D00DFFA8078E309F208DFFA807088828C8315
:10054D00E309F0A3DFFA806489828A83E0A3F608C9
:10055D00DFFA805889828A83E0A3F208DFFA804CA3
:10056D0080D280FA80C680D4806980F2803380107A
:10057D0080A680EA809A80A880DA80E280CA8033E3
:10058D0089828A83ECFAE493A3C8C582C8CCC5835B
:10059D00CCF0A3C8C582C8CCC583CCDFE9DEE7802B
:1005AD000D89828A83E493A3F608DFF9ECFAA9F0AA
:1005BD00EDFB2289828A83ECFAE0A3C8C582C8CC00
:1005CD00C583CCF0A3C8C582C8CCC583CCDFEADE19
:1005DD00E880DB89828A83E493A3F208DFF980CC7B
:1005ED0088F0EF60010E4E60C388F0ED2402B40474
:1005FD000050B9F582EB2402B4040050AF2323451B
:06060D00822390056D73CD
:10061300C2D530F707B2D563F0FF05F030E70CB26F
:10062300D5F4048463F0FF05F080018430D502F42F
:0206330004229F
:10063500BB010689828A83E0225002E722BBFE02C3
:09064500E32289828A83E49322F6
:10064E00BB010CE58229F582E5833AF583E0225061
:10065E0006E92582F8E622BBFE06E92582F8E222AB
:0D066E00E58229F582E5833AF583E49322C5
:10067B00BB010689828A83F0225002F722BBFE015E
:02068B00F32258
:10068D00EF8DF0A4A8F0CF8CF0A428CE8DF0A42E81
:02069D00FE223B
:10069F00BC000BBE0029EF8DF084FFADF022E4CC3F
:1006AF00F875F008EF2FFFEE33FEEC33FCEE9DEC08
:1006BF00984005FCEE9DFE0FD5F0E9E4CEFD22ED4E
:1006CF00F8F5F0EE8420D21CFEADF075F008EF2F98
:1006DF00FFED33FD4007985006D5F0F222C398FD89
:0506EF000FD5F0EA2226
:1006F400C2D5EC30E709B2D5E4C39DFDE49CFCEE21
:1007040030E715B2D5E4C39FFFE49EFE12069FC3F3
:10071400E49DFDE49CFC800312069F30D507C3E4EE
:060724009FFFE49EFE228F
:0E072A00C3E49FFFE49EFEE49DFDE49CFC22E0
:10073800FAE6FB0808E6F925F0F618E6CA3AF622C2
:10074800D083D082F8E4937012740193700DA3A340
:1007580093F8740193F5828883E473740293686054
:06076800EFA3A3A380DF54
:10185700EFB40A07740D121862740A309811A89928
:10186700B8130CC2983098FDA899C298B811F630F1
:0718770099FDC299F59922C9
:1010E700021532E493A3F8E493A34003F68001F2D8
:1010F70008DFF48029E493A3F85407240CC8C3330A
:10110700C4540F4420C8834004F456800146F6DFD8
:10111700E4800B0102040810204080901265E47EF1
:10112700019360BCA3FF543F30E509541FFEE493CD
:10113700A360010ECF54C025E060A840B8E493A394
:10114700FAE493A3F8E493A3C8C582C8CAC583CABF
:10115700F0A3C8C582C8CAC583CADFE9DEE780BE77
:0112DA000013
:00000001FF
