:100904005365742050617373776F72643A202020AA
:1009140000456E7465722050617373776F72643A28
:100924002000446F6F72204F70656E696E672E2EC3
:100934002E20004D6F746F7220466F72776172645F
:100944002E2E2000446F6F72204F70656E656421F7
:1009540020202020005072657373204B65792E2E61
:100964002E202020200057726F6E67205061737311
:10097400776F726421200042757A7A657220416C27
:1009840061726D2E2E2E2000416C61726D205374A5
:100994006F70706564212020005265733A20202016
:1009A400202020202020202020004572723A446913
:1009B4007620627920302020202000202020202052
:1009C4002020202020202020202020004E756D3162
:1009D4003A20202020202020202020200053656C55
:1009E400656374204F703A202020202020002B20A3
:1009F400202D20202A20202F202020202020004EBF
:100A0400756D323A20202020202020202020200034
:100A14005365743A32300054696D652053617665CC
:100A2400642120202020200050617373776F72644A
:100A340020536176656421200050617373776F726F
:100A440064204F4B2120202020004F70656E696E7A
:100A54006720446F6F722E2E2E2000130C1F173B3D
:020A640000028E
:1012D400015F00C104C106C109C10BC10301620061
:1012E400016100016000470002130C1F173B00025C
:1012F4005000310000000000000000000000000069
:101304000000005000410000000000000000000048
:101314000000000000004200090014420000000028
:10132400C10AC107C108C1054100120044001C00E4
:1013340000000044002000000000410013004400AD
:0F1344002D0000000041002C00C100C101C102BA
:100A660075F00A120405AFF0EF2430229000201230
:100A76000571EC020346A3E075F00AA4FFA3E02F7C
:100A8600227BFF7D017F01227A0979BF7BFF7D01F1
:100A96007F0222FFE433FE900062E07C00227BFFAF
:100AA6007D017F0122E47F0AFEFDFC12057D120412
:100AB600FEA804A905AA06AB07AF22E4FCFDFE22A8
:100AC60075F00A12040524302274142522F582E4F6
:100AD6003400F58322E0FAA3E0FBFF7C007D0AAE3A
:100AE600020204BB7BFF7D017F0122E52725E0246E
:100AF60051F582E43400F583220522E522C39402EF
:100B0600221201161203847C007D641204BB90003D
:100B160000ECF0A3EDF0227BFF7D017F01221205A0
:100B26008990002CE004F0E4F560D204227C007D7C
:100B36000A020466F583E02430FB22AF601218C96E
:100B46008F22E52222900013F0900012228F468E0B
:100B5600458D448C4322AF46AE45AD44AC4322AFEF
:100B660026AE25AD24AC2322852782758300120488
:100B76002775F00A8422E52725E02452F582E4341D
:100B860000F583227BFF7D017F022274472522F830
:100B9600A6070522E52222120384900009EEF0A39F
:100BA600EFF022E4FFFEFDFCD302055BE47B0AFACC
:0D0BB600F9F8229000637401F0E4F560226C
:101DA000E4F567E4FDFCAF67121C817F057E00123D
:0B1DB00000060567E567C3940740E8E4
:011DBB002205
:0C1E9700121E70EF6005121F398F6022D0
:101D2900E560B4460EE5610475F0038485F061E46D
:0E1D3900F56022E560B44505E4F561F5602231
:1018C900EF1205C618FB0818F20C18EF1618F518D0
:1018D90018FE1C190442190A4A19075219015A1803
:1018E900F85E0000190D7F00227F01227F02227F0E
:1018F90003227F04227F05227F06227F07227F0899
:07190900227F09227FFF226B
:10157C007F18121B03EF64AA6042E4F522E52224D3
:10158C0001FFE433FE120B33120ACFEDF0E52224F7
:10159C0010FF120ACFE0FD7C00121C817F057E003B
:1015AC001200060522E522C3940840D17DAA7C00D6
:1015BC007F18121C817F057E00020006E4F522E5EF
:1015CC00222410FF121B03120ACFEFF00522E52292
:0515DC00C3940840EA81
:0115E10022E7
:101C0D00E4F522E5222410FF74142522120AD3E0F4
:101C1D00FD7C00121C817F057E001200060522E569
:061C2D0022C3940840DD13
:011C3300228E
:101CEA00E4FF74142F120AD3E0FE74242FF582E461
:0F1CFA003400F583E06E6002C3220FBF08E4D30D
:011D090022B7
:1015E2007BFF300C067A09790480047A0979157D2B
:1015F200017F01121CA5E4F522900062E0FFE522C2
:10160200C39F5008E52204FD7B2A8016900062E009
:10161200B5220930060604FD7B5F8006E52204FD43
:101622007B2D7F02121ECF0522E522C3940840C9FA
:101632007522097B20AD227F02121ECF0522E522F0
:05164200D3941040EEFE
:011647002280
:101A3F007A097926120A87121CA57A097937120AB0
:101A4F0092121CA5121C5B7A097948120A87121C84
:101A5F00A57A097959120B8A121CA57FD07E07022D
:021A6F0000066F
:101BB9007A09796A120AA4121CA57A09797B120B8F
:101BC9008A121CA5121ED97BFF7A09798C7D017FA7
:0B1BD90002121CA57FE87E030200063C
:101B330090001C12059500000000900020120595EE
:101B430000000000E4900013F090002D12059500B2
:0D1B5300000000E490002CF0900012F02241
:08136C008F368E358D348C3371
:10137400E4F542120B53C20CEC335008D20C1205A4
:101384004D120B53120B5CEC4D4E4F7007F53A7532
:1013940042018036AB46AA45A944A843120BA94092
:1013A40029E54294085023120BB2120B5C12191057
:1013B400AF03AE420542743A2EF8A607120B5C1234
:1013C4000BB2121910120B5380CA300C0BAD380536
:1013D400387B2DAF37121ECF854239E539D39400BF
:1013E4004016AD38053874392539F8E62430FBAF9A
:0813F40037121ECF153980E30A
:0113FC0022CE
:080BC3008F268E258D248C2362
:100BCB007A09799D120AA4121CA5752D01E4FFFE6A
:100BDB00FDFCAB26AA25A924A8231202BC5019ADF3
:100BEB002D052D7B2D7F02121ECF120B65120335A7
:100BFB008F268E258D248C23120B651203848F2A4E
:100C0B008E298D288C27EC120346A804A905AA0669
:100C1B00AB07120B651200217B007A40791C7846DA
:100C2B001201161203848E2B8F2CAF2AAE29AD28FE
:100C3B00AC27753702852D3812136CAF2AAE29AD50
:0D0C4B0028AC27EC4D4E4F7004052D802F76
:100C58008F328E318D308C2FAB32AA31A930A82F2C
:100C6800120BA9401AAF32AE31AD30AC2F120BB215
:0F0C78001219108F328E318D308C2F052D80D9AF
:100C8700900013E06404704FE52DC3940B5048ADFA
:100C97002D052D7B2E7F02121ECFAE2BAF2C7C0392
:100CA7007DE8120466120B33ED2430FBAD2D052DC4
:100CB7007F02121ECF7D64120CF67D0A120CF6AD70
:100CC7002D052DC005AE2BAF2C120B33ED2430FBB9
:100CD700D0057F02121ECF852D2EE52ED3941050FE
:0E0CE7000D7B20AD2E7F02121ECF052E80EC5D
:100CF50022AE2BAF2C7C001204667C007D0A120408
:0F0D050066ED2430FBAD2D052D7F02121ECF228F
:10115E00900013E024FE602C146047146062240398
:10116E006003021227120A72C004C005C006C0072F
:10117E0090001C120A75D003D002D001D0001200CC
:10118E00250211F6120A72C004C005C006C00790EF
:10119E00001C120A75D003D002D001D0001200211B
:1011AE008046120A72C004C005C006C00790001C1B
:1011BE00120A75D003D002D001D000120116802879
:1011CE00900020120571EC4D4E4F6024120A72C031
:1011DE0004C005C006C00790001C120A75D003D0CB
:1011EE0002D001D00012021F90002D120589801A24
:1011FE007A0979AE120AEA121CA5120A8E121CA5E1
:10120E007FDC7E05120006021B3390002D12057145
:0A121E00120BC39000127403F022BB
:10122800900012E014602414603824026003021253
:10123800BB7A0979D0120AEA1212C9400690001C3A
:101248001212BC7BFF7A0979BF80107A0979E11202
:101258000B1D121CA57BFF7A0979F27D017F020222
:101268001CA57A0A7903120B1D1212C940069000B8
:10127800201212BC900013E0FFB401047B2B8017EE
:10128800EFB402047B2D800F900013E0B403047FB9
:101298002A80027F2FAB077D017F02121ECF7523A4
:1012A800027B20AD237F02121ECF0523E523D394B2
:0312B8001040EEF5
:1012BB002212057175370175380612136C22121C38
:0912CB00A590002CE0D394002250
:1017A200121F27E4F522AF22121B03120B91C394DE
:0717B2000740F3E547700F4B
:0F17B900F522E522900A5F93FF120B91B407F31C
:1017C800121489E4F52274472522F8E6FD3395E0E2
:1017D800FCAF22121C817F057E001200060522E55F
:0617E80022C3940740E05B
:0117EE0022D8
:100F7900121A719000317432F0A37430F090003578
:100F8900742DF0900038F0E547120AC6900033F04E
:100F9900E547120A66900034F0E548120AC6900047
:100FA90036F0E548120A66900037F0E549120AC69C
:100FB900900039F0E549120A6690003AF07F0690F0
:100FC900003B7420F0A3DFFCE4900040F07B017A41
:100FD9000079317D017F01121CA5900043743AF01C
:100FE900900046F0E54A120AC6900041F0E54A121F
:100FF9000A66900042F0E54B120AC6900044F0E5FB
:101009004B120A66900045F0E54C120AC69000475B
:10101900F0E54C120A66900048F0A37420F0A3F0A2
:10102900900009120ADBEF243090004BF0AF031255
:101039000AE1ED2430A3F0A3742EF0900000120A07
:10104900DBEF243090004EF07C007D0AAF03AE0246
:101059001204BBED2430A3F0A37443F0E4A3F07BA6
:0C106900017A0079417D017F02021CA584
:101AA300E54C7F05121ACAE54C7007E54B7F04121B
:101AB3001ACAE54B7010E54C700CE54AFD3395E00E
:101AC300FC7F03121C8122FD3395E0FC121C812252
:081648008F238B248A258926DB
:10165000E523D394104003752310900061E523F037
:10166000E4A3F0A3F0F527E52775F002A4C39523C2
:101670007480F865F0985022AB24AA25A926AE0202
:10168000AF01EF4E6014120B6EFF120AF1EFF01271
:101690000B6E120B7CE5F0F0800A120AF1E4F012F6
:0C16A0000B7CE4F00527E527640670BB16
:0116AC00221B
:101AD300900061E06029900063E07023900062E071
:101AE300120AF5EFF0900062E004F0900061E0FF6D
:101AF300A3E0C39F4009A37401F0E4900062F022C5
:1006BA00200010121A717B007A0079477F0C1216FB
:1006CA0048D200AF601218C9EFF46006121AD3E4D8
:1006DA00F5602004030208727A0A79141208FAE40F
:1006EA00F522900062E0B5220F900064E06009E50F
:1006FA00222407FD7B208010E5222407FD74512562
:10070A0022120AF7E02430FB7F01121ECF120AFFE1
:10071A0040D07D091208E4E5222402120A99B5079D
:10072A0013ECB5060F900064E06009E522240AFD87
:10073A007B208011E522240AFD74532522F582E4E8
:10074A003400120B3A7F01121ECF120AFF40C87DF5
:10075A000C1208E4E5222404120A99B50713ECB531
:10076A00060F900064E06009E522240DFD7B2080DD
:10077A0011E522240DFD74552522F582E434001278
:10078A000B3A7F01121ECF120AFF40C87B207D0F51
:10079A007F01121ECF7B207D107F01121ECFE4F550
:1007AA0022E5222406120A99B50712ECB5060E9024
:1007BA000064E06008E52204FD7B208010E5220445
:1007CA00FD74572522F582E43400120B3A7F021297
:1007DA001ECF120AFF40CA7D031208EFE522240841
:1007EA00120A99B50713ECB5060F900064E0600988
:1007FA00E5222404FD7B208011E5222404FD74599E
:10080A002522F582E43400120B3A7F02121ECF121F
:10081A000AFF40C87D061208EFE522240A120A9947
:10082A00B50713ECB5060F900064E06009E52224D1
:10083A0007FD7B208011E5222407FD745B2522F544
:10084A0082E43400120B3A7F02121ECF120AFF40D2
:10085A00C87522097B20AD227F02121ECF0522E530
:10086A0022D3941040EEC204900063E0606B9000C3
:10087A0051120A7DF547120A7CF548120A7CF5499D
:10088A00120A7CF54A120A7CF54B120A7CF54C7561
:10089A004D01121489E4F52274472522F8E6FD3346
:1008AA0095E0FCAF22121C817F057E00120006052E
:1008BA0022E522C3940740E07A0A791B1208FA1249
:1008CA000A8E121CA57FE87E03120006C20AC20025
:0908DA00E4900063F0900061F06D
:1008E300227B2D7F01121ECFE4F522227B3A7F0269
:1008F300121ECFE4F522227BFF7D017F01121CA58E
:0109030022D1
:10175300E561704AE562700E300B43D2B5121E8A02
:0F176300C20B75620122E5626401703230032F00
:10177200D2B5121B8D8F258E248D238C22E4FFFE81
:101782007DC87C42AB25AA24A923A822120B07AF4D
:0F17920025AE24AD23AC22120B9DC203E4F562F9
:0117A1002225
:1017EF00E5617044E560B44405B20AE4F560300A7F
:1017FF0024E560B40703120BB91206BA300629901C
:10180F000064E070047F0180027F00900064EFF0BD
:10181F00D204C20622300405120F79C20430090522
:09182F00121AA3C2091217532278
:10107500E56164016003C2012220010D121148C21D
:1010850007C208C205D201D204E560B4440EB20716
:10109500121148C208C205E4F560D204AF60121807
:1010A500C9EFF46023900062E03007092414F5824B
:1010B500E4340080072424F582E43400F583EFF05E
:1010C500121AD3E4F560D204E560B40703120BB934
:1010D500300409A207920C1215E2C204900063E0E5
:1010E500606030071B121C0D7A0A792C12115412FC
:1010F5000A8E121CA57FDC7E05120006C207803011
:10110500121CEA5024D2087A0A793D1211547BFF49
:101115007A0A794E7D017F02121CA57FE87E0312B3
:101125000006121A3FC2088007D205121BB9C20574
:101135007B007A0079007F08121648E4900063F07E
:02114500D204D2
:10114700227B007A0079007F08121648227BFF7DF8
:07115700017F01121CA5221B
:100D1400E56164026003C20222200207121B33D27F
:100D240002D204900012E0146057147003020DD232
:100D3400147003020E2624036003020E4D120B41AD
:100D4400F4600F90001C120AAB1204F190001C1204
:100D54000B24E560B4070F9000127401F0E49000D6
:100D64002CF0F560D204E56064156003020E4D902A
:100D7400001C12059500000000E490002CF0020E07
:100D840049E560B409087401120B4B04802DE56039
:100D9400B415077402120B4B8021E560B40C0C905F
:100DA40000137403F0900012148010E560B4180E60
:100DB4009000137404F09000127402120B2CE5607E
:100DC40064446003020E4D121B33E4020E49120BFD
:100DD40041F46035900013E0FFB4030B90002CE065
:100DE400C394044002800EEF6403600E90002CE074
:100DF400C394084005E4F560804F900020120AABCC
:100E04001204F1900020120B24E560B407081211BB
:100E14005EE4F560D204E5606444702D121B33E493
:100E24008023120B41B4FF05E560B4441C121B334C
:100E3400E522F4600F120ABF90001C12058990008D
:100E44002C7401F0E4F560D204300405121228C2B7
:010E54000499
:010E5500227A
:10195400121E8A7FEE7E02120006121B8D120B9D50
:10196400121B8DE4FBFA79C87842120B071217A2F6
:1019740012157C121E4C121F1B121F30121E9712BE
:0D1984001D291217EF121075120D1480EFBF
:10000600EF1FAC0670011E4C600A7D027CEFDCFE21
:04001600DDFC80ECA1
:01001A0022C3
:101E090053890F438910758BA4758DFFC28FD28EAC
:071E1900D2ABD2AFC2BB2225
:041F2C0003060C0993
:0F13530001150001160001170001140001180018
:031F3000021E0985
:031F33008F1922E1
:03001B00021503C8
:06150300C0E0C0F0C0D002
:10150900758BA4758DFF051AE51A75F0648485F04D
:101519001AE51A704A0516E516C3940A40057516A8
:1015290000D2040517E517C394324005751700D298
:10153900060515E515C394644012751500D2090511
:101549005FE55F94054005755F00D20BE562B40164
:011559000E83
:0E155A000514E514C3944B4005751400D2032C
:0D156800E51AC395195004D2908002C2907C
:07157500D0D0D0F0D0E0322D
:0616AD008E248F258D261E
:1016B300E4F527F528C3E5289525E5279524503B30
:1016C300E526700D0518E5189403400EE4F518801F
:1016D30009E51870037518041518E518901F2C9365
:1016E300FFE59054F0FEEF4EF5907F027E0012006E
:0E16F300060528E52870BE052780BA5390F042
:0117010022C5
:101C5B007D007C027F057E001204548E228F23129E
:101C6B0016AD7FF47E011200067D01AF23AE22126A
:051C7B0016AD5390F0CE
:011C80002241
:0B1EAF00D288C289D2A8D2AFD2B822DC
:101E60005389F0438901E4F58AF58CC28DC28C2236
:0B1EBA00AD07AC068C8CAF058F8A22B0
:091EE300AF8CEFFEAD8AEDFF2289
:061F1500EF24FF928C2274
:101DF100E6FFE50E5407FE7401A8060822E50E135E
:081E01001313541F2410F822F2
:061F1B00121E60021EAF61
:0D1E7000E50F6006E4F50F7F01227F0022E0
:0D1E7D00E50D6006E4F50D7F01227F0022D7
:031F3600AF0C22CB
:031F3900AF0B22C9
:03000300020E5694
:100E5600C0E0C0F0C083C082C0D075D000C000C062
:100E660001C002C003C004C005C006C007E5087083
:100E76000CFFFE121EBA7F01121F15803CE50864A6
:100E860001703C120F6894A6E509942E4010E50AFD
:100E9600948EE50994325006750802020F4DD3E58B
:100EA6000A948CE50994264010E50A9474E50994A1
:100EB6002A5006750D01020F45750801020F4DE512
:100EC6000864026003020F4D120F689414E509943A
:100ED60002401CE50A94FCE50994055012121DFE19
:100EE600C000121DF18002C333D8FCF45F8024D306
:100EF600E50A9426E50994064020E50A940EE509DC
:100F0600940A5016121DFEC000121DF18002C33352
:100F1600D8FC4FD000F6050E8006750E0075080148
:100F2600E50EC394204020750E00E511F4B5100FB0
:100F3600E513F4B5120985100C85120B750F01E443
:100F4600FF121F15750800D007D006D005D004D0B3
:100F560003D002D001D000D0D0D082D083D0F0D040
:100F6600E032121EE38E098F0AE4FFFE121EBAD388
:030F7600E50A2267
:091362000747130C1F173B0002A2
:1018380075F00A120405FF3395E0FEEFC4F8540F63
:10184800C868FFEEC454F048FE2275F00A12040579
:10185800ADF0ED3395E0FCEF2DFDEE3CFC221218C7
:1018680081EFC4540F75F00AA4FEEF540F2E22F531
:0918780082EF558224FF92B42294
:051F2700C2B5C2B622A4
:061702008C238D24AB07CF
:10170800D2B5E4FD74017E00A805088005C333CE78
:1017180033CED8F9FFEB121877D2B6C2B60DBD0892
:10172800E3E4FD74017E00A805088005C333CE33C9
:10173800CED8F9FFE5235EFEE5245F4E24FF92B480
:0A174800D2B6C2B60DBD08DBC2B573
:011752002274
:02188100AD07B1
:10188300E4F9430501D2B5FB74017E00A803088087
:1018930005C333CE33CED8F9FFED121877C2B6D2D3
:1018A300B60BBB08E3E4FBD2B6C2B630B40D740189
:1018B300A803088002C333D8FC42010BBB08E8C26B
:0518C300B5C2B4AF0145
:0118C80022FD
:10148900E4FDFC7F8E121702E547121838E5471272
:1014990018527F8C121702E548121838E5481218BD
:1014A900527F88121702E549121838E54912185275
:1014B9007F86121702E54A121838E54A1218527F38
:1014C90084121702E54B121838E54B1218527F8225
:1014D900121702E54C121838E54C1218527F801287
:1014E9001702E54D121838E54D1218527F8A121766
:0A14F900027D807C007F8E02170246
:101A71007F8C121866F5477F88121866F5487F86B5
:101A8100121866F5497F84121866F54A7F8212188A
:101A910066F54B7F80121866F54C7F8A121866F541
:011AA1004DF7
:011AA2002221
:101C81008F238C248D25121EEC7FA0121BE4121EC3
:101C9100A3AF23121BE4121EA3AF25121BE4121ED5
:041CA100A3021F0E6D
:021B03008F232E
:101B0500121EEC7FA0121BE4121EA3AF23121BE4CE
:101B1500121EA3121EEC7FA1121BE4121EA3121D9E
:0D1B2500658F247F01121EC5121F0EAF2414
:011B32002290
:0D1E8A00121D477FCC121DD87F44021DD8C9
:101B8D00121D477FCC121DD87FBE121DD8121D838A
:101B9D008F26121D83EFFEE526FFFDAC06EC12032A
:0B1BAD004BE4FBFA7980784112021F24
:011BB800220A
:101D4700C2AFD2B7C2B77FF7DFFED2B77F20DFFEC1
:0D1D5700A2B7E433FE7FF7DFFED2AFAF0688
:011D6400225C
:101E2000C2AFC2B77E04DEFEEF24FF92B77E18DE9B
:051E3000FED2B7D2AFA5
:011E3500228A
:101DBC00C2AFC2B77F02DFFED2B77F02DFFEA2B78F
:0B1DCC00E433FE7F18DFFED2AFAF064D
:011DD70022E9
:021DD800AD0755
:101DDA00E4FC7401A804088002C333D8FC5DFF1236
:061DEA001E200CBC08ECF9
:011DF00022D0
:101D8300E4FDFC121DBCEF600D7401A80408800281
:0C1D9300C333D8FC42050CBC08E9AF05C6
:011D9F002221
:091EEC00D2A0D2A1C2A0C2A12221
:071F0E00C2A0D2A1D2A02263
:021BE400AD074B
:101BE600E4FB74807E00A803088006CEA2E713CE2D
:101BF60013D8F8FFEDF582EF558224FF92A0D2A10B
:061C0600C2A10BBB08DCCB
:011C0C0022B5
:101D6500E4FFD2A0FED2A130A00D7480A8060880A1
:0D1D750002C313D8FC4207C2A10EBE08E84D
:011D8200223E
:0A1EC500EF24FF92A0D2A1C2A122D7
:0B1EA300D2A0D2A1A2A0E433FFC2A194
:011EAE002211
:10199100CFCDCFCECCCE1204667C007D0A12046678
:1019A100ED2430FF121F061A227F0AEA24FFFDE40C
:1019B10034FFFC7E0022C2A58F80D2A7121EF5C281
:0D19C100A722CFCDCFCECCCE120466EF22F0
:081EF5007F027EEFDEFEDFFC40
:011EFD0022C2
:081EFE00C2A61219B7021EF57D
:081F0600D2A61219B7021EF564
:101E3600AE07BE0104ED148006BE0209ED243F4440
:061E460080FF121EFE22C7
:101E4C007F38121EFE7F0C121EFE7F06121EFE7FB6
:041E5C0001021EFE63
:0A1ECF00AC03121E36AF04021F061A
:061CA5008B338A348935FF
:101CAB00121E36E4FDAB33AA34A9358D8275830041
:0C1CBB00120427FF6006121F060D80E9CE
:011CC70022FA
:081C34008E638F648C658D66E0
:101C3C007F017E00E4FBEBC39566E5656480F87478
:0E1C4C008098500AAC63AD641204540B80E81B
:011C5A002267
:041D0A008A1D8B1E85
:101D0E00121E36AA1FEAD39400400F1219AA121CF3
:0A1D1E0034AC1DAD1E12199180EBCC
:011D28002298
:1019CE00121E36C3EA64809480400B7F2B121F06D2
:1019DE008A538B54800E7F2D121F06C3E49BF55441
:1019EE00E49AF553AA52EAD39400400F1219AA12A0
:0B19FE001C34AC53AD5412199180EB67
:011A090022BA
:041A0A008A578B5814
:101A0E00121E36AA59EAD3940040257F101219AC43
:101A1E00121C34AC57AD581219C3540FFEC3940A9E
:101A2E00EE5004243080022437FF121F061A80D590
:011A3E002285
:041B60008A5C8B5DB3
:101B6400121E36AA5EEAD39400401DEA24FFFDE467
:101B740034FFFC7F027E00121C34AC5CAD5D121994
:081B8400C354011219A280DD17
:011B8C002236
:051F2100007FE3DFFE7C
:011F26002298
:041CC800AD07AC06B2
:101CCC00E4FBFAED25E0FFEC33FEC3EB9FEA9E50FC
:0D1CDC000CB2A5121F210BBB00010A80E60F
:011CE90022D8
:0A1ED9007FB87E0B121CC8D2A522B0
:10001E000203F0E86480F8E933E83360110460F01D
:10002E00ED33EC337009E8FCE9FDEAFEEBFF220448
:10003E0060DED3EB9FEA9EE99DE8C2E78CF0C2F743
:10004E0095F0400CE8CCF8E9CDF9EACEFAEBCFFB0F
:10005E001203BB85D0F05804700320D5B3E80470AA
:10006E00075002B2D50203FA92D5EC0460F7E4CC45
:10007E00C0E0C398F8603B94186008400DD0E0FBD8
:10008E000203D2E4FBFAC9FC8028E830E406E4C996
:10009E00FBE4CAFCE830E305E4C9CACBFCE854072C
:1000AE006010F8C3E913F9EA13FAEB13FBEC13FC37
:1000BE00D8F130F52FC3E49CFCEF9BFFEE9AFEEDDA
:1000CE0099FDD0E0FBEF4E4D4C701222DB03020384
:1000DE00F7EC2CFCEF33FFEE33FEED33FDED30E7A6
:1000EE00EB0203D2EF2BFFEE3AFEED39FDD0E0FB33
:1000FE0050130BBB00030203FAED13FDEE13FEEFDC
:08010E0013FFEC13FC0203D205
:10011600EC4D6011E8497017ED33EC3304600DE4E3
:10012600FCFFFEFD22E933E8330470F80203F01207
:1001360003BB58046009E4CC248150062850090208
:1001460003FA2840030203F7C0E0EB4A7044B98083
:1001560006D0E0FB0203E6EF4E701CBD8008EBFF05
:10016600EAFEE9FD80EBE98DF0A4FEE5F00201FF71
:10017600E9CDF9EAFEEBFFEF89F0A4FCE5F0CE89C4
:10018600F0A42EFFE435F0CD89F0A42DFEE435F081
:100196008067EF4E7005BD80D780C3EF8BF0A4ACAF
:1001A600F0EE8BF0A42CFCE435F0F8EF8AF0A42CEA
:1001B600E5F038FCE433CB8DF0A42CFCE5F03BF8FD
:1001C600EE8AF0A42CFCE5F038F8E433CF89F0A4ED
:1001D6002CFCE5F038CF3400CE89F0A42FFFE5F0F3
:1001E6003EFEE433C98DF0A42EFEE5F039CD8AF04B
:1001F600A42FFFE5F03EFEE43DFD33D0E0FB5007C3
:100206000BBB000F0203FAEC2CFCEF33FFEE33FEC0
:06021600ED33FD0203D2EE
:10021C000203FAEC5D046005E8590470030203F074
:10022C001203BB580460F6EC4860F2EC7004FDFE5F
:10023C00FF22C860DB2481C85009C39860025006B5
:10024C000203F79850CAF582E9294B4A7005AB8234
:10025C000203E675F0007C1A7880C3EF9BEE9AEDF2
:10026C0099400DC3EF9BFFEE9AFEED99FDE842F02D
:10027C00DC23ACF0D0E0FFD0E0FED0E0FDAB822080
:10028C00E7101BEB60BAEC2CFCEF33FFEE33FEED0A
:10029C0033FD0203D2E803F830E705C0F075F00037
:1002AC00EF2FFFEE33FEED33FD40B830E7C280AAEE
:1002BC0074F8CC6480CCC86480C8F58204604FC3E9
:1002CC00EB9FF5F0EA9E42F0E99D42F0E89C45F088
:1002DC00603C501DE5825FFFE582D313CB5BCBF412
:1002EC002B5582FB50280ABA002409B9002008803B
:1002FC001DE5825BFBE582D313CF5FCFF4C3132FD5
:10030C005582FF50090EBE00050DBD00010CC3EB5C
:10031C009FF5F0EA9E42F0E99D42F0E89C45F060C2
:09032C0007CC4820E701B3EC22E4
:10033500ED33EC33600A047003BD8004ECB2E7FCD6
:010345002295
:1003460075F020800E75F010800575F0087D007E32
:10035600007F003392D530D50312054DEC334010A3
:10036600EF33FFEE33FEED33FDEC33FCD5F0ED223B
:0E037600E5F0247EA2D513CC92E7CDCEFF2277
:10038400EDD2E7CD33EC3392D524814006E4FFFE71
:10039400FDFC22FCE4CFCECDCC24E0501174FF80D0
:1003A400EDC3CC13CCCD13CDCE13CECF13CF04706D
:0703B400F030D5DE02054D1B
:1003BB00E9D2E7C933E833F892D5EDD2E7CD33EC88
:0703CB0033FC5002B2D52201
:1003D200EC30E7100FBF000C0EBE00080DBD00048C
:1003E2000BEB6014A2D5EB13FCED92E7FD2274FF38
:1003F200FCFDFEFF22E480F8A2D574FF13FC7D8091
:03040200E480EFA4
:030000000213FDEB
:0C13FD00787FE4F6D8FD75816702144487
:10040500C2D530F707B2D563F0FF05F030E70CB27F
:10041500D5F4048463F0FF05F080018430D502F43F
:020425000422AF
:10042700BB010CE58229F582E5833AF583E022508A
:1004370006E92582F8E622BBFE06E92582F8E222D4
:0D044700E58229F582E5833AF583E49322EE
:10045400EF8DF0A4A8F0CF8CF0A428CE8DF0A42EBC
:02046400FE2276
:10046600BC000BBE0029EF8DF084FFADF022E4CC7A
:10047600F875F008EF2FFFEE33FEEC33FCEE9DEC43
:10048600984005FCEE9DFE0FD5F0E9E4CEFD22ED89
:10049600F8F5F0EE8420D21CFEADF075F008EF2FD3
:1004A600FFED33FD4007985006D5F0F222C398FDC4
:0504B6000FD5F0EA2261
:1004BB00C2D5EC30E709B2D5E4C39DFDE49CFCEE5C
:1004CB0030E715B2D5E4C39FFFE49EFE120466C36A
:1004DB00E49DFDE49CFC800312046630D507C3E465
:0604EB009FFFE49EFE22CB
:0D04F100EF2BFFEE3AFEED39FDEC38FC225A
:1004FE00E88FF0A4CC8BF0A42CFCE98EF0A42CFC9D
:10050E008AF0EDA42CFCEA8EF0A4CDA8F08BF0A41A
:10051E002DCC3825F0FDE98FF0A42CCD35F0FCEB79
:10052E008EF0A4FEA9F0EB8FF0A4CFC5F02ECD393E
:0F053E00FEE43CFCEAA42DCE35F0FDE43CFC22AB
:10191000C2D5E830E70FB2D5E4C39BFBE49AFAE402
:1019200099F9E498F8EC30E717B2D5121946120687
:1019300028E4C39BFBE49AFAE499F9E498F880035D
:1019400012062830D50DE4C39FFFE49EFEE49DFD02
:04195000E49CFC22F5
:0E054D00C3E49FFFE49EFEE49DFDE49CFC22BF
:10055B00EB9FF5F0EA9E42F0E99D42F0EC6480C817
:06056B0064809845F022B7
:0C057100E0FCA3E0FDA3E0FEA3E0FF22FD
:0C057D00E0F8A3E0F9A3E0FAA3E0FB2201
:0C058900ECF0A3EDF0A3EEF0A3EFF022E5
:10059500A8828583F0D083D0821205AC1205AC12F7
:1005A50005AC1205ACE473E493A3C583C5F0C5831C
:1005B500C8C582C8F0A3C583C5F0C583C8C582C8B0
:0105C5002213
:1005C600D083D082F8E4937012740193700DA3A3C4
:1005D60093F8740193F5828883E4737402936860D8
:0605E600EFA3A3A380DFD8
:10140900021954E493A3F8E493A34003F68001F28C
:1014190008DFF48029E493A3F85407240CC8C333E4
:10142900C4540F4420C8834004F456800146F6DFB3
:10143900E4800B01020408102040809012D4E47E5D
:10144900019360BCA3FF543F30E509541FFEE493A8
:10145900A360010ECF54C025E060A840B8E493A36F
:10146900FAE493A3F8E493A3C8C582C8CAC583CA9A
:10147900F0A3C8C582C8CAC583CADFE9DEE780BE52
:01136B000081
:1005EC0075F008758200EF2FFFEE33FECD33CDCCC6
:1005FC0033CCC58233C5829BED9AEC99E582984049
:10060C000CF582EE9BFEED9AFDEC99FC0FD5F0D625
:10061C00E4CEFBE4CDFAE4CCF9A88222B800C1B94F
:10062C000059BA002DEC8BF084CFCECDFCE5F0CB8D
:10063C00F97818EF2FFFEE33FEED33FDEC33FCEBC6
:10064C0033FB10D703994004EB99FB0FD8E5E4F981
:10065C00FA227818EF2FFFEE33FEED33FDEC33FC6E
:10066C00C933C910D7059BE99A4007EC9BFCE99A62
:10067C00F90FD8E0E4C9FAE4CCFB2275F010EF2FA7
:10068C00FFEE33FEED33FDCC33CCC833C810D707A7
:10069C009BEC9AE899400AED9BFDEC9AFCE899F8E2
:0E06AC000FD5F0DAE4CDFBE4CCFAE4C8F92275
:00000001FF
